{"abi":[{"type":"fallback","stateMutability":"nonpayable"},{"type":"receive","stateMutability":"payable"},{"type":"function","name":"balances","inputs":[{"name":"","type":"address","internalType":"address"}],"outputs":[{"name":"","type":"uint256","internalType":"uint256"}],"stateMutability":"view"},{"type":"function","name":"deposit","inputs":[],"outputs":[],"stateMutability":"payable"},{"type":"function","name":"getContractBalance","inputs":[],"outputs":[{"name":"","type":"uint256","internalType":"uint256"}],"stateMutability":"view"},{"type":"function","name":"getUserSavings","inputs":[],"outputs":[{"name":"","type":"uint256","internalType":"uint256"}],"stateMutability":"view"},{"type":"function","name":"withdraw","inputs":[{"name":"_amount","type":"uint256","internalType":"uint256"}],"outputs":[],"stateMutability":"nonpayable"},{"type":"event","name":"DepositSuccessful","inputs":[{"name":"sender","type":"address","indexed":true,"internalType":"address"},{"name":"amount","type":"uint256","indexed":true,"internalType":"uint256"}],"anonymous":false},{"type":"event","name":"WithdrawalSuccessful","inputs":[{"name":"receiver","type":"address","indexed":true,"internalType":"address"},{"name":"amount","type":"uint256","indexed":true,"internalType":"uint256"},{"name":"data","type":"bytes","indexed":false,"internalType":"bytes"}],"anonymous":false}],"bytecode":{"object":"0x6080604052348015600e575f5ffd5b506109258061001c5f395ff3fe60806040526004361061004d575f3560e01c806327e235e3146100615780632e1a7d4d1461009d578063690e2ea9146100c55780636f9fb98a146100ef578063d0e30db01461011957610054565b3661005457005b34801561005f575f5ffd5b005b34801561006c575f5ffd5b506100876004803603810190610082919061052a565b610123565b604051610094919061056d565b60405180910390f35b3480156100a8575f5ffd5b506100c360048036038101906100be91906105b0565b610137565b005b3480156100d0575f5ffd5b506100d9610372565b6040516100e6919061056d565b60405180910390f35b3480156100fa575f5ffd5b506101036103b5565b604051610110919061056d565b60405180910390f35b6101216103bc565b005b5f602052805f5260405f205f915090505481565b5f73ffffffffffffffffffffffffffffffffffffffff163373ffffffffffffffffffffffffffffffffffffffff16036101a5576040517f08c379a000000000000000000000000000000000000000000000000000000000815260040161019c90610635565b60405180910390fd5b5f5f5f3373ffffffffffffffffffffffffffffffffffffffff1673ffffffffffffffffffffffffffffffffffffffff1681526020019081526020015f205490505f8111610227576040517f08c379a000000000000000000000000000000000000000000000000000000000815260040161021e9061069d565b60405180910390fd5b818161023391906106e8565b5f5f3373ffffffffffffffffffffffffffffffffffffffff1673ffffffffffffffffffffffffffffffffffffffff1681526020019081526020015f20819055505f5f3373ffffffffffffffffffffffffffffffffffffffff168460405161029990610748565b5f6040518083038185875af1925050503d805f81146102d3576040519150601f19603f3d011682016040523d82523d5f602084013e6102d8565b606091505b50915091508161031d576040517f08c379a0000000000000000000000000000000000000000000000000000000008152600401610314906107a6565b60405180910390fd5b833373ffffffffffffffffffffffffffffffffffffffff167f38c4cbe065ed2235be0df490ea24f35671853f70bb149d4ff8739d9f8d716af6836040516103649190610834565b60405180910390a350505050565b5f5f5f3373ffffffffffffffffffffffffffffffffffffffff1673ffffffffffffffffffffffffffffffffffffffff1681526020019081526020015f2054905090565b5f47905090565b5f34116103fe576040517f08c379a00000000000000000000000000000000000000000000000000000000081526004016103f59061089e565b60405180910390fd5b345f5f3373ffffffffffffffffffffffffffffffffffffffff1673ffffffffffffffffffffffffffffffffffffffff1681526020019081526020015f205461044691906108bc565b5f5f3373ffffffffffffffffffffffffffffffffffffffff1673ffffffffffffffffffffffffffffffffffffffff1681526020019081526020015f2081905550343373ffffffffffffffffffffffffffffffffffffffff167fb3ef81558ed1a50072a492984535a009da8b129c749500b387f1e5f4886bdde560405160405180910390a3565b5f5ffd5b5f73ffffffffffffffffffffffffffffffffffffffff82169050919050565b5f6104f9826104d0565b9050919050565b610509816104ef565b8114610513575f5ffd5b50565b5f8135905061052481610500565b92915050565b5f6020828403121561053f5761053e6104cc565b5b5f61054c84828501610516565b91505092915050565b5f819050919050565b61056781610555565b82525050565b5f6020820190506105805f83018461055e565b92915050565b61058f81610555565b8114610599575f5ffd5b50565b5f813590506105aa81610586565b92915050565b5f602082840312156105c5576105c46104cc565b5b5f6105d28482850161059c565b91505092915050565b5f82825260208201905092915050565b7f41646472657373207a65726f20646574656374656400000000000000000000005f82015250565b5f61061f6015836105db565b915061062a826105eb565b602082019050919050565b5f6020820190508181035f83015261064c81610613565b9050919050565b7f496e73756666696369656e742066756e647300000000000000000000000000005f82015250565b5f6106876012836105db565b915061069282610653565b602082019050919050565b5f6020820190508181035f8301526106b48161067b565b9050919050565b7f4e487b71000000000000000000000000000000000000000000000000000000005f52601160045260245ffd5b5f6106f282610555565b91506106fd83610555565b9250828203905081811115610715576107146106bb565b5b92915050565b5f81905092915050565b50565b5f6107335f8361071b565b915061073e82610725565b5f82019050919050565b5f61075282610728565b9150819050919050565b7f7472616e73666572206661696c656400000000000000000000000000000000005f82015250565b5f610790600f836105db565b915061079b8261075c565b602082019050919050565b5f6020820190508181035f8301526107bd81610784565b9050919050565b5f81519050919050565b5f82825260208201905092915050565b8281835e5f83830152505050565b5f601f19601f8301169050919050565b5f610806826107c4565b61081081856107ce565b93506108208185602086016107de565b610829816107ec565b840191505092915050565b5f6020820190508181035f83015261084c81846107fc565b905092915050565b7f43616e2774206465706f736974207a65726f2076616c756500000000000000005f82015250565b5f6108886018836105db565b915061089382610854565b602082019050919050565b5f6020820190508181035f8301526108b58161087c565b9050919050565b5f6108c682610555565b91506108d183610555565b92508282019050808211156108e9576108e86106bb565b5b9291505056fea2646970667358221220466d4339543f411e9cf6692a5bfc92876dbb2b5e7bc18c72c0d580e25c197d6b64736f6c63430008210033","linkReferences":{}},"methodIdentifiers":{"balances(address)":"27e235e3","deposit()":"d0e30db0","getContractBalance()":"6f9fb98a","getUserSavings()":"690e2ea9","withdraw(uint256)":"2e1a7d4d"},"id":16}