{"abi":[{"type":"constructor","inputs":[{"name":"_owners","type":"address[]","internalType":"address[]"},{"name":"_required","type":"uint256","internalType":"uint256"}],"stateMutability":"nonpayable"},{"type":"receive","stateMutability":"payable"},{"type":"function","name":"approve","inputs":[{"name":"_txId","type":"uint256","internalType":"uint256"}],"outputs":[],"stateMutability":"nonpayable"},{"type":"function","name":"approved","inputs":[{"name":"","type":"uint256","internalType":"uint256"},{"name":"","type":"address","internalType":"address"}],"outputs":[{"name":"","type":"bool","internalType":"bool"}],"stateMutability":"view"},{"type":"function","name":"balance","inputs":[],"outputs":[{"name":"","type":"uint256","internalType":"uint256"}],"stateMutability":"view"},{"type":"function","name":"execute","inputs":[{"name":"_txId","type":"uint256","internalType":"uint256"}],"outputs":[],"stateMutability":"nonpayable"},{"type":"function","name":"isOwner","inputs":[{"name":"","type":"address","internalType":"address"}],"outputs":[{"name":"","type":"bool","internalType":"bool"}],"stateMutability":"view"},{"type":"function","name":"owners","inputs":[{"name":"","type":"uint256","internalType":"uint256"}],"outputs":[{"name":"","type":"address","internalType":"address"}],"stateMutability":"view"},{"type":"function","name":"required","inputs":[],"outputs":[{"name":"","type":"uint256","internalType":"uint256"}],"stateMutability":"view"},{"type":"function","name":"revoke","inputs":[{"name":"_txId","type":"uint256","internalType":"uint256"}],"outputs":[],"stateMutability":"nonpayable"},{"type":"function","name":"submitTransaction","inputs":[{"name":"_to","type":"address","internalType":"address"},{"name":"_value","type":"uint256","internalType":"uint256"},{"name":"_data","type":"bytes","internalType":"bytes"}],"outputs":[],"stateMutability":"nonpayable"},{"type":"function","name":"transactions","inputs":[{"name":"","type":"uint256","internalType":"uint256"}],"outputs":[{"name":"to","type":"address","internalType":"address"},{"name":"value","type":"uint256","internalType":"uint256"},{"name":"data","type":"bytes","internalType":"bytes"},{"name":"executed","type":"bool","internalType":"bool"}],"stateMutability":"view"},{"type":"event","name":"Approve","inputs":[{"name":"owner","type":"address","indexed":true,"internalType":"address"},{"name":"txId","type":"uint256","indexed":true,"internalType":"uint256"}],"anonymous":false},{"type":"event","name":"Deposit","inputs":[{"name":"sender","type":"address","indexed":true,"internalType":"address"},{"name":"amount","type":"uint256","indexed":false,"internalType":"uint256"}],"anonymous":false},{"type":"event","name":"Execute","inputs":[{"name":"txId","type":"uint256","indexed":true,"internalType":"uint256"}],"anonymous":false},{"type":"event","name":"Revoke","inputs":[{"name":"owner","type":"address","indexed":true,"internalType":"address"},{"name":"txId","type":"uint256","indexed":true,"internalType":"uint256"}],"anonymous":false},{"type":"event","name":"Submit","inputs":[{"name":"txId","type":"uint256","indexed":true,"internalType":"uint256"}],"anonymous":false}],"bytecode":{"object":"0x608060405234801561000f575f5ffd5b50604051612036380380612036833981810160405281019061003191906104a2565b5f825111610074576040517f08c379a000000000000000000000000000000000000000000000000000000000815260040161006b90610556565b60405180910390fd5b5f81118015610084575081518111155b6100c3576040517f08c379a00000000000000000000000000000000000000000000000000000000081526004016100ba906105e4565b60405180910390fd5b5f5b82518110156102a5575f8382815181106100e2576100e1610602565b5b602002602001015190505f73ffffffffffffffffffffffffffffffffffffffff168173ffffffffffffffffffffffffffffffffffffffff160361015a576040517f08c379a000000000000000000000000000000000000000000000000000000000815260040161015190610679565b60405180910390fd5b60015f8273ffffffffffffffffffffffffffffffffffffffff1673ffffffffffffffffffffffffffffffffffffffff1681526020019081526020015f205f9054906101000a900460ff16156101e4576040517f08c379a00000000000000000000000000000000000000000000000000000000081526004016101db906106e1565b60405180910390fd5b6001805f8373ffffffffffffffffffffffffffffffffffffffff1673ffffffffffffffffffffffffffffffffffffffff1681526020019081526020015f205f6101000a81548160ff0219169083151502179055505f81908060018154018082558091505060019003905f5260205f20015f9091909190916101000a81548173ffffffffffffffffffffffffffffffffffffffff021916908373ffffffffffffffffffffffffffffffffffffffff1602179055505080806001019150506100c5565b508060028190555050506106ff565b5f604051905090565b5f5ffd5b5f5ffd5b5f5ffd5b5f601f19601f8301169050919050565b7f4e487b71000000000000000000000000000000000000000000000000000000005f52604160045260245ffd5b61030f826102c9565b810181811067ffffffffffffffff8211171561032e5761032d6102d9565b5b80604052505050565b5f6103406102b4565b905061034c8282610306565b919050565b5f67ffffffffffffffff82111561036b5761036a6102d9565b5b602082029050602081019050919050565b5f5ffd5b5f73ffffffffffffffffffffffffffffffffffffffff82169050919050565b5f6103a982610380565b9050919050565b6103b98161039f565b81146103c3575f5ffd5b50565b5f815190506103d4816103b0565b92915050565b5f6103ec6103e784610351565b610337565b9050808382526020820190506020840283018581111561040f5761040e61037c565b5b835b81811015610438578061042488826103c6565b845260208401935050602081019050610411565b5050509392505050565b5f82601f830112610456576104556102c5565b5b81516104668482602086016103da565b91505092915050565b5f819050919050565b6104818161046f565b811461048b575f5ffd5b50565b5f8151905061049c81610478565b92915050565b5f5f604083850312156104b8576104b76102bd565b5b5f83015167ffffffffffffffff8111156104d5576104d46102c1565b5b6104e185828601610442565b92505060206104f28582860161048e565b9150509250929050565b5f82825260208201905092915050565b7f6f776e65727320726571756972656400000000000000000000000000000000005f82015250565b5f610540600f836104fc565b915061054b8261050c565b602082019050919050565b5f6020820190508181035f83015261056d81610534565b9050919050565b7f696e76616c6964207265717569726564206e756d626572206f66206f776e65725f8201527f7300000000000000000000000000000000000000000000000000000000000000602082015250565b5f6105ce6021836104fc565b91506105d982610574565b604082019050919050565b5f6020820190508181035f8301526105fb816105c2565b9050919050565b7f4e487b71000000000000000000000000000000000000000000000000000000005f52603260045260245ffd5b7f696e76616c6964206f776e6572000000000000000000000000000000000000005f82015250565b5f610663600d836104fc565b915061066e8261062f565b602082019050919050565b5f6020820190508181035f83015261069081610657565b9050919050565b7f6f776e6572206973206e6f7420756e69717565000000000000000000000000005f82015250565b5f6106cb6013836104fc565b91506106d682610697565b602082019050919050565b5f6020820190508181035f8301526106f8816106bf565b9050919050565b61192a8061070c5f395ff3fe608060405260043610610094575f3560e01c8063b69ef8a811610058578063b69ef8a814610208578063b759f95414610232578063c64274741461025a578063dc8452cd14610282578063fe0d94c1146102ac576100e9565b8063025e7c27146100ed57806320c5429b146101295780632f54bf6e146101515780638253951a1461018d5780639ace38c2146101c9576100e9565b366100e9573373ffffffffffffffffffffffffffffffffffffffff167fe1fffcc4923d04b559f4d29a8bfc6cda04eb5b0d3c460751c2402c5c5cc9109c346040516100df9190610e82565b60405180910390a2005b5f5ffd5b3480156100f8575f5ffd5b50610113600480360381019061010e9190610ecd565b6102d4565b6040516101209190610f37565b60405180910390f35b348015610134575f5ffd5b5061014f600480360381019061014a9190610ecd565b61030e565b005b34801561015c575f5ffd5b5061017760048036038101906101729190610f7a565b610594565b6040516101849190610fbf565b60405180910390f35b348015610198575f5ffd5b506101b360048036038101906101ae9190610fd8565b6105b1565b6040516101c09190610fbf565b60405180910390f35b3480156101d4575f5ffd5b506101ef60048036038101906101ea9190610ecd565b6105db565b6040516101ff9493929190611086565b60405180910390f35b348015610213575f5ffd5b5061021c6106c7565b6040516102299190610e82565b60405180910390f35b34801561023d575f5ffd5b5061025860048036038101906102539190610ecd565b6106ce565b005b348015610265575f5ffd5b50610280600480360381019061027b9190611131565b610958565b005b34801561028d575f5ffd5b50610296610b4e565b6040516102a39190610e82565b60405180910390f35b3480156102b7575f5ffd5b506102d260048036038101906102cd9190610ecd565b610b54565b005b5f81815481106102e2575f80fd5b905f5260205f20015f915054906101000a900473ffffffffffffffffffffffffffffffffffffffff1681565b60015f3373ffffffffffffffffffffffffffffffffffffffff1673ffffffffffffffffffffffffffffffffffffffff1681526020019081526020015f205f9054906101000a900460ff16610397576040517f08c379a000000000000000000000000000000000000000000000000000000000815260040161038e906111fc565b60405180910390fd5b8060038054905081106103df576040517f08c379a00000000000000000000000000000000000000000000000000000000081526004016103d690611264565b60405180910390fd5b81600381815481106103f4576103f3611282565b5b905f5260205f2090600402016003015f9054906101000a900460ff1615610450576040517f08c379a0000000000000000000000000000000000000000000000000000000008152600401610447906112f9565b60405180910390fd5b60045f8481526020019081526020015f205f3373ffffffffffffffffffffffffffffffffffffffff1673ffffffffffffffffffffffffffffffffffffffff1681526020019081526020015f205f9054906101000a900460ff166104e8576040517f08c379a00000000000000000000000000000000000000000000000000000000081526004016104df90611361565b60405180910390fd5b5f60045f8581526020019081526020015f205f3373ffffffffffffffffffffffffffffffffffffffff1673ffffffffffffffffffffffffffffffffffffffff1681526020019081526020015f205f6101000a81548160ff021916908315150217905550823373ffffffffffffffffffffffffffffffffffffffff167fec9ab91322523c899ede7830ec9bfc992b5981cdcc27b91162fb23de5791117b60405160405180910390a3505050565b6001602052805f5260405f205f915054906101000a900460ff1681565b6004602052815f5260405f20602052805f5260405f205f915091509054906101000a900460ff1681565b600381815481106105ea575f80fd5b905f5260205f2090600402015f91509050805f015f9054906101000a900473ffffffffffffffffffffffffffffffffffffffff1690806001015490806002018054610634906113ac565b80601f0160208091040260200160405190810160405280929190818152602001828054610660906113ac565b80156106ab5780601f10610682576101008083540402835291602001916106ab565b820191905f5260205f20905b81548152906001019060200180831161068e57829003601f168201915b505050505090806003015f9054906101000a900460ff16905084565b5f47905090565b60015f3373ffffffffffffffffffffffffffffffffffffffff1673ffffffffffffffffffffffffffffffffffffffff1681526020019081526020015f205f9054906101000a900460ff16610757576040517f08c379a000000000000000000000000000000000000000000000000000000000815260040161074e906111fc565b60405180910390fd5b80600380549050811061079f576040517f08c379a000000000000000000000000000000000000000000000000000000000815260040161079690611264565b60405180910390fd5b8160045f8281526020019081526020015f205f3373ffffffffffffffffffffffffffffffffffffffff1673ffffffffffffffffffffffffffffffffffffffff1681526020019081526020015f205f9054906101000a900460ff1615610839576040517f08c379a000000000000000000000000000000000000000000000000000000000815260040161083090611426565b60405180910390fd5b826003818154811061084e5761084d611282565b5b905f5260205f2090600402016003015f9054906101000a900460ff16156108aa576040517f08c379a00000000000000000000000000000000000000000000000000000000081526004016108a1906112f9565b60405180910390fd5b600160045f8681526020019081526020015f205f3373ffffffffffffffffffffffffffffffffffffffff1673ffffffffffffffffffffffffffffffffffffffff1681526020019081526020015f205f6101000a81548160ff021916908315150217905550833373ffffffffffffffffffffffffffffffffffffffff167f90ec57f18fa7b15c6b8d5e4d1deb90796c74b2ff23d4d0cecad0cb42a96b312860405160405180910390a350505050565b60015f3373ffffffffffffffffffffffffffffffffffffffff1673ffffffffffffffffffffffffffffffffffffffff1681526020019081526020015f205f9054906101000a900460ff166109e1576040517f08c379a00000000000000000000000000000000000000000000000000000000081526004016109d8906111fc565b60405180910390fd5b600360405180608001604052808673ffffffffffffffffffffffffffffffffffffffff16815260200185815260200184848080601f0160208091040260200160405190810160405280939291908181526020018383808284375f81840152601f19601f8201169050808301925050505050505081526020015f1515815250908060018154018082558091505060019003905f5260205f2090600402015f909190919091505f820151815f015f6101000a81548173ffffffffffffffffffffffffffffffffffffffff021916908373ffffffffffffffffffffffffffffffffffffffff160217905550602082015181600101556040820151816002019081610ae89190611622565b506060820151816003015f6101000a81548160ff02191690831515021790555050506001600380549050610b1c919061171e565b7f08324b3d745b914e3abd4ffbfead91e3b78391a98c173202129215ab933adfbe60405160405180910390a250505050565b60025481565b806003805490508110610b9c576040517f08c379a0000000000000000000000000000000000000000000000000000000008152600401610b9390611264565b60405180910390fd5b8160038181548110610bb157610bb0611282565b5b905f5260205f2090600402016003015f9054906101000a900460ff1615610c0d576040517f08c379a0000000000000000000000000000000000000000000000000000000008152600401610c04906112f9565b60405180910390fd5b600254610c1984610da0565b1015610c5a576040517f08c379a0000000000000000000000000000000000000000000000000000000008152600401610c519061179b565b60405180910390fd5b5f60038481548110610c6f57610c6e611282565b5b905f5260205f20906004020190506001816003015f6101000a81548160ff0219169083151502179055505f815f015f9054906101000a900473ffffffffffffffffffffffffffffffffffffffff1673ffffffffffffffffffffffffffffffffffffffff16826001015483600201604051610ce99190611843565b5f6040518083038185875af1925050503d805f8114610d23576040519150601f19603f3d011682016040523d82523d5f602084013e610d28565b606091505b5050905080610d6c576040517f08c379a0000000000000000000000000000000000000000000000000000000008152600401610d63906118a3565b60405180910390fd5b847fddb556f1d2c1ec821e910b019d3685b229db152a0ecd517ca7e24b8bd713928960405160405180910390a25050505050565b5f5f5b5f80549050811015610e645760045f8481526020019081526020015f205f5f8381548110610dd457610dd3611282565b5b905f5260205f20015f9054906101000a900473ffffffffffffffffffffffffffffffffffffffff1673ffffffffffffffffffffffffffffffffffffffff1673ffffffffffffffffffffffffffffffffffffffff1681526020019081526020015f205f9054906101000a900460ff1615610e5757600182610e5491906118c1565b91505b8080600101915050610da3565b50919050565b5f819050919050565b610e7c81610e6a565b82525050565b5f602082019050610e955f830184610e73565b92915050565b5f5ffd5b5f5ffd5b610eac81610e6a565b8114610eb6575f5ffd5b50565b5f81359050610ec781610ea3565b92915050565b5f60208284031215610ee257610ee1610e9b565b5b5f610eef84828501610eb9565b91505092915050565b5f73ffffffffffffffffffffffffffffffffffffffff82169050919050565b5f610f2182610ef8565b9050919050565b610f3181610f17565b82525050565b5f602082019050610f4a5f830184610f28565b92915050565b610f5981610f17565b8114610f63575f5ffd5b50565b5f81359050610f7481610f50565b92915050565b5f60208284031215610f8f57610f8e610e9b565b5b5f610f9c84828501610f66565b91505092915050565b5f8115159050919050565b610fb981610fa5565b82525050565b5f602082019050610fd25f830184610fb0565b92915050565b5f5f60408385031215610fee57610fed610e9b565b5b5f610ffb85828601610eb9565b925050602061100c85828601610f66565b9150509250929050565b5f81519050919050565b5f82825260208201905092915050565b8281835e5f83830152505050565b5f601f19601f8301169050919050565b5f61105882611016565b6110628185611020565b9350611072818560208601611030565b61107b8161103e565b840191505092915050565b5f6080820190506110995f830187610f28565b6110a66020830186610e73565b81810360408301526110b8818561104e565b90506110c76060830184610fb0565b95945050505050565b5f5ffd5b5f5ffd5b5f5ffd5b5f5f83601f8401126110f1576110f06110d0565b5b8235905067ffffffffffffffff81111561110e5761110d6110d4565b5b60208301915083600182028301111561112a576111296110d8565b5b9250929050565b5f5f5f5f6060858703121561114957611148610e9b565b5b5f61115687828801610f66565b945050602061116787828801610eb9565b935050604085013567ffffffffffffffff81111561118857611187610e9f565b5b611194878288016110dc565b925092505092959194509250565b5f82825260208201905092915050565b7f6e6f74206f776e657200000000000000000000000000000000000000000000005f82015250565b5f6111e66009836111a2565b91506111f1826111b2565b602082019050919050565b5f6020820190508181035f830152611213816111da565b9050919050565b7f7472616e73616374696f6e20646f6573206e6f742065786973740000000000005f82015250565b5f61124e601a836111a2565b91506112598261121a565b602082019050919050565b5f6020820190508181035f83015261127b81611242565b9050919050565b7f4e487b71000000000000000000000000000000000000000000000000000000005f52603260045260245ffd5b7f7472616e73616374696f6e20616c7265616479206578656375746564000000005f82015250565b5f6112e3601c836111a2565b91506112ee826112af565b602082019050919050565b5f6020820190508181035f830152611310816112d7565b9050919050565b7f7478206e6f7420617070726f76656400000000000000000000000000000000005f82015250565b5f61134b600f836111a2565b915061135682611317565b602082019050919050565b5f6020820190508181035f8301526113788161133f565b9050919050565b7f4e487b71000000000000000000000000000000000000000000000000000000005f52602260045260245ffd5b5f60028204905060018216806113c357607f821691505b6020821081036113d6576113d561137f565b5b50919050565b7f7472616e73616374696f6e20616c726561647920617070726f766564000000005f82015250565b5f611410601c836111a2565b915061141b826113dc565b602082019050919050565b5f6020820190508181035f83015261143d81611404565b9050919050565b7f4e487b71000000000000000000000000000000000000000000000000000000005f52604160045260245ffd5b5f819050815f5260205f209050919050565b5f6020601f8301049050919050565b5f82821b905092915050565b5f600883026114cd7fffffffffffffffffffffffffffffffffffffffffffffffffffffffffffffffff82611492565b6114d78683611492565b95508019841693508086168417925050509392505050565b5f819050919050565b5f61151261150d61150884610e6a565b6114ef565b610e6a565b9050919050565b5f819050919050565b61152b836114f8565b61153f61153782611519565b84845461149e565b825550505050565b5f5f905090565b611556611547565b611561818484611522565b505050565b5f5b828110156115875761157c5f82840161154e565b600181019050611568565b505050565b601f8211156115da57828211156115d9576115a681611471565b6115af83611483565b6115b885611483565b60208610156115c5575f90505b8083016115d482840382611566565b505050505b5b505050565b5f82821c905092915050565b5f6115fa5f19846008026115df565b1980831691505092915050565b5f61161283836115eb565b9150826002028217905092915050565b61162b82611016565b67ffffffffffffffff81111561164457611643611444565b5b61164e82546113ac565b61165982828561158c565b5f60209050601f83116001811461168a575f8415611678578287015190505b6116828582611607565b8655506116e9565b601f19841661169886611471565b5f5b828110156116bf5784890151825560018201915060208501945060208101905061169a565b868310156116dc57848901516116d8601f8916826115eb565b8355505b6001600288020188555050505b505050505050565b7f4e487b71000000000000000000000000000000000000000000000000000000005f52601160045260245ffd5b5f61172882610e6a565b915061173383610e6a565b925082820390508181111561174b5761174a6116f1565b5b92915050565b7f617070726f76616c206973206c657373207468616e20726571756972656400005f82015250565b5f611785601e836111a2565b915061179082611751565b602082019050919050565b5f6020820190508181035f8301526117b281611779565b9050919050565b5f81905092915050565b5f81546117cf816113ac565b6117d981866117b9565b9450600182165f81146117f357600181146118085761183a565b60ff198316865281151582028601935061183a565b61181185611471565b5f5b8381101561183257815481890152600182019150602081019050611813565b838801955050505b50505092915050565b5f61184e82846117c3565b915081905092915050565b7f7472616e73616374696f6e206661696c656400000000000000000000000000005f82015250565b5f61188d6012836111a2565b915061189882611859565b602082019050919050565b5f6020820190508181035f8301526118ba81611881565b9050919050565b5f6118cb82610e6a565b91506118d683610e6a565b92508282019050808211156118ee576118ed6116f1565b5b9291505056fea264697066735822122037161e10993d9384e8586207cf9a378f2bbf32d5b29beb216bdd29825837873864736f6c63430008210033","linkReferences":{}},"methodIdentifiers":{"approve(uint256)":"b759f954","approved(uint256,address)":"8253951a","balance()":"b69ef8a8","execute(uint256)":"fe0d94c1","isOwner(address)":"2f54bf6e","owners(uint256)":"025e7c27","required()":"dc8452cd","revoke(uint256)":"20c5429b","submitTransaction(address,uint256,bytes)":"c6427474","transactions(uint256)":"9ace38c2"},"id":1}