{"abi":[{"type":"function","name":"createTask","inputs":[{"name":"_title","type":"string","internalType":"string"}],"outputs":[],"stateMutability":"nonpayable"},{"type":"function","name":"deleteTask","inputs":[{"name":"_id","type":"uint8","internalType":"uint8"}],"outputs":[],"stateMutability":"nonpayable"},{"type":"function","name":"getAllTasks","inputs":[],"outputs":[{"name":"","type":"tuple[]","internalType":"struct Todo.Task[]","components":[{"name":"id","type":"uint8","internalType":"uint8"},{"name":"title","type":"string","internalType":"string"},{"name":"isCompleted","type":"bool","internalType":"bool"},{"name":"timeCompleted","type":"uint256","internalType":"uint256"}]}],"stateMutability":"view"},{"type":"function","name":"markTaskCompleted","inputs":[{"name":"_id","type":"uint8","internalType":"uint8"}],"outputs":[],"stateMutability":"nonpayable"},{"type":"function","name":"tasks","inputs":[{"name":"","type":"uint256","internalType":"uint256"}],"outputs":[{"name":"id","type":"uint8","internalType":"uint8"},{"name":"title","type":"string","internalType":"string"},{"name":"isCompleted","type":"bool","internalType":"bool"},{"name":"timeCompleted","type":"uint256","internalType":"uint256"}],"stateMutability":"view"},{"type":"function","name":"undoTask","inputs":[{"name":"_id","type":"uint8","internalType":"uint8"}],"outputs":[],"stateMutability":"nonpayable"},{"type":"function","name":"updateTask","inputs":[{"name":"_id","type":"uint8","internalType":"uint8"},{"name":"_title","type":"string","internalType":"string"}],"outputs":[],"stateMutability":"nonpayable"}],"bytecode":{"object":"0x6080604052348015600e575f5ffd5b506112ba8061001c5f395ff3fe608060405234801561000f575f5ffd5b506004361061007b575f3560e01c80638d977672116100595780638d977672146100d5578063a1d0166b14610108578063c3d081f514610124578063db6e1d32146101405761007b565b8063111002aa1461007f5780632d1d44a41461009b578063779900b4146100b7575b5f5ffd5b610099600480360381019061009491906109d9565b61015c565b005b6100b560048036038101906100b09190610a56565b61025f565b005b6100bf61032e565b6040516100cc9190610c3d565b60405180910390f35b6100ef60048036038101906100ea9190610c87565b610458565b6040516100ff9493929190610d27565b60405180910390f35b610122600480360381019061011d9190610a56565b610530565b005b61013e60048036038101906101399190610a56565b610600565b005b61015a60048036038101906101559190610d71565b610798565b005b5f60015f81819054906101000a900460ff168092919061017b90610df8565b91906101000a81548160ff021916908360ff16021790555090505f60405180608001604052808360ff1681526020018481526020015f151581526020015f815250908060018154018082558091505060019003905f5260205f2090600402015f909190919091505f820151815f015f6101000a81548160ff021916908360ff1602179055506020820151816001019081610215919061102e565b506040820151816002015f6101000a81548160ff0219169083151502179055506060820151816003015550508060015f6101000a81548160ff021916908360ff1602179055505050565b5f5f90505b5f805490508160ff16101561032a578160ff165f8260ff168154811061028d5761028c6110fd565b5b905f5260205f2090600402015f015f9054906101000a900460ff1660ff1603610317575f5f8260ff16815481106102c7576102c66110fd565b5b905f5260205f2090600402016002015f6101000a81548160ff0219169083151502179055505f5f8260ff1681548110610303576103026110fd565b5b905f5260205f209060040201600301819055505b808061032290610df8565b915050610264565b5050565b60605f805480602002602001604051908101604052809291908181526020015f905b8282101561044f578382905f5260205f2090600402016040518060800160405290815f82015f9054906101000a900460ff1660ff1660ff16815260200160018201805461039c90610e4d565b80601f01602080910402602001604051908101604052809291908181526020018280546103c890610e4d565b80156104135780601f106103ea57610100808354040283529160200191610413565b820191905f5260205f20905b8154815290600101906020018083116103f657829003601f168201915b50505050508152602001600282015f9054906101000a900460ff1615151515815260200160038201548152505081526020019060010190610350565b50505050905090565b5f8181548110610466575f80fd5b905f5260205f2090600402015f91509050805f015f9054906101000a900460ff169080600101805461049790610e4d565b80601f01602080910402602001604051908101604052809291908181526020018280546104c390610e4d565b801561050e5780601f106104e55761010080835404028352916020019161050e565b820191905f5260205f20905b8154815290600101906020018083116104f157829003601f168201915b505050505090806002015f9054906101000a900460ff16908060030154905084565b5f5f90505b5f805490508160ff1610156105fc578160ff165f8260ff168154811061055e5761055d6110fd565b5b905f5260205f2090600402015f015f9054906101000a900460ff1660ff16036105e95760015f8260ff1681548110610599576105986110fd565b5b905f5260205f2090600402016002015f6101000a81548160ff021916908315150217905550425f8260ff16815481106105d5576105d46110fd565b5b905f5260205f209060040201600301819055505b80806105f490610df8565b915050610535565b5050565b5f5f90505b5f805490508160ff161015610794578160ff165f8260ff168154811061062e5761062d6110fd565b5b905f5260205f2090600402015f015f9054906101000a900460ff1660ff1603610781575f60015f80549050610663919061112a565b81548110610674576106736110fd565b5b905f5260205f2090600402015f8260ff1681548110610696576106956110fd565b5b905f5260205f2090600402015f82015f9054906101000a900460ff16815f015f6101000a81548160ff021916908360ff160217905550600182018160010190816106e09190611172565b50600282015f9054906101000a900460ff16816002015f6101000a81548160ff021916908315150217905550600382015481600301559050505f80548061072a57610729611257565b5b600190038181905f5260205f2090600402015f5f82015f6101000a81549060ff0219169055600182015f61075e9190610835565b600282015f6101000a81549060ff0219169055600382015f905550509055610794565b808061078c90610df8565b915050610605565b5050565b5f5f90505b5f805490508160ff161015610830578260ff165f8260ff16815481106107c6576107c56110fd565b5b905f5260205f2090600402015f015f9054906101000a900460ff1660ff160361081d57815f8260ff1681548110610800576107ff6110fd565b5b905f5260205f209060040201600101908161081b919061102e565b505b808061082890610df8565b91505061079d565b505050565b50805461084190610e4d565b5f825580601f10610852575061086c565b601f0160209004905f5260205f209061086b919061086f565b5b50565b5f5b80821115610887578281015f9055600101610871565b505090565b5f604051905090565b5f5ffd5b5f5ffd5b5f5ffd5b5f5ffd5b5f601f19601f8301169050919050565b7f4e487b71000000000000000000000000000000000000000000000000000000005f52604160045260245ffd5b6108eb826108a5565b810181811067ffffffffffffffff8211171561090a576109096108b5565b5b80604052505050565b5f61091c61088c565b905061092882826108e2565b919050565b5f67ffffffffffffffff821115610947576109466108b5565b5b610950826108a5565b9050602081019050919050565b828183375f83830152505050565b5f61097d6109788461092d565b610913565b905082815260208101848484011115610999576109986108a1565b5b6109a484828561095d565b509392505050565b5f82601f8301126109c0576109bf61089d565b5b81356109d084826020860161096b565b91505092915050565b5f602082840312156109ee576109ed610895565b5b5f82013567ffffffffffffffff811115610a0b57610a0a610899565b5b610a17848285016109ac565b91505092915050565b5f60ff82169050919050565b610a3581610a20565b8114610a3f575f5ffd5b50565b5f81359050610a5081610a2c565b92915050565b5f60208284031215610a6b57610a6a610895565b5b5f610a7884828501610a42565b91505092915050565b5f81519050919050565b5f82825260208201905092915050565b5f819050602082019050919050565b610ab381610a20565b82525050565b5f81519050919050565b5f82825260208201905092915050565b8281835e5f83830152505050565b5f610aeb82610ab9565b610af58185610ac3565b9350610b05818560208601610ad3565b610b0e816108a5565b840191505092915050565b5f8115159050919050565b610b2d81610b19565b82525050565b5f819050919050565b610b4581610b33565b82525050565b5f608083015f830151610b605f860182610aaa565b5060208301518482036020860152610b788282610ae1565b9150506040830151610b8d6040860182610b24565b506060830151610ba06060860182610b3c565b508091505092915050565b5f610bb68383610b4b565b905092915050565b5f602082019050919050565b5f610bd482610a81565b610bde8185610a8b565b935083602082028501610bf085610a9b565b805f5b85811015610c2b5784840389528151610c0c8582610bab565b9450610c1783610bbe565b925060208a01995050600181019050610bf3565b50829750879550505050505092915050565b5f6020820190508181035f830152610c558184610bca565b905092915050565b610c6681610b33565b8114610c70575f5ffd5b50565b5f81359050610c8181610c5d565b92915050565b5f60208284031215610c9c57610c9b610895565b5b5f610ca984828501610c73565b91505092915050565b610cbb81610a20565b82525050565b5f82825260208201905092915050565b5f610cdb82610ab9565b610ce58185610cc1565b9350610cf5818560208601610ad3565b610cfe816108a5565b840191505092915050565b610d1281610b19565b82525050565b610d2181610b33565b82525050565b5f608082019050610d3a5f830187610cb2565b8181036020830152610d4c8186610cd1565b9050610d5b6040830185610d09565b610d686060830184610d18565b95945050505050565b5f5f60408385031215610d8757610d86610895565b5b5f610d9485828601610a42565b925050602083013567ffffffffffffffff811115610db557610db4610899565b5b610dc1858286016109ac565b9150509250929050565b7f4e487b71000000000000000000000000000000000000000000000000000000005f52601160045260245ffd5b5f610e0282610a20565b915060ff8203610e1557610e14610dcb565b5b600182019050919050565b7f4e487b71000000000000000000000000000000000000000000000000000000005f52602260045260245ffd5b5f6002820490506001821680610e6457607f821691505b602082108103610e7757610e76610e20565b5b50919050565b5f819050815f5260205f209050919050565b5f6020601f8301049050919050565b5f82821b905092915050565b5f60088302610ed97fffffffffffffffffffffffffffffffffffffffffffffffffffffffffffffffff82610e9e565b610ee38683610e9e565b95508019841693508086168417925050509392505050565b5f819050919050565b5f610f1e610f19610f1484610b33565b610efb565b610b33565b9050919050565b5f819050919050565b610f3783610f04565b610f4b610f4382610f25565b848454610eaa565b825550505050565b5f5f905090565b610f62610f53565b610f6d818484610f2e565b505050565b5f5b82811015610f9357610f885f828401610f5a565b600181019050610f74565b505050565b601f821115610fe65782821115610fe557610fb281610e7d565b610fbb83610e8f565b610fc485610e8f565b6020861015610fd1575f90505b808301610fe082840382610f72565b505050505b5b505050565b5f82821c905092915050565b5f6110065f1984600802610feb565b1980831691505092915050565b5f61101e8383610ff7565b9150826002028217905092915050565b61103782610ab9565b67ffffffffffffffff8111156110505761104f6108b5565b5b61105a8254610e4d565b611065828285610f98565b5f60209050601f831160018114611096575f8415611084578287015190505b61108e8582611013565b8655506110f5565b601f1984166110a486610e7d565b5f5b828110156110cb578489015182556001820191506020850194506020810190506110a6565b868310156110e857848901516110e4601f891682610ff7565b8355505b6001600288020188555050505b505050505050565b7f4e487b71000000000000000000000000000000000000000000000000000000005f52603260045260245ffd5b5f61113482610b33565b915061113f83610b33565b925082820390508181111561115757611156610dcb565b5b92915050565b5f8154905061116b81610e4d565b9050919050565b818103611180575050611255565b6111898261115d565b67ffffffffffffffff8111156111a2576111a16108b5565b5b6111ac8254610e4d565b6111b7828285610f98565b5f601f8311600181146111e4575f84156111d2578287015490505b6111dc8582611013565b86555061124e565b601f1984166111f287610e7d565b96506111fd86610e7d565b5f5b82811015611224578489015482556001820191506001850194506020810190506111ff565b86831015611241578489015461123d601f891682610ff7565b8355505b6001600288020188555050505b5050505050505b565b7f4e487b71000000000000000000000000000000000000000000000000000000005f52603160045260245ffdfea2646970667358221220be1a0e327ae409682fdfa24bf7034d893f1572142daab6870d8ab61dce185ff064736f6c63430008210033","linkReferences":{}},"methodIdentifiers":{"createTask(string)":"111002aa","deleteTask(uint8)":"c3d081f5","getAllTasks()":"779900b4","markTaskCompleted(uint8)":"a1d0166b","tasks(uint256)":"8d977672","undoTask(uint8)":"2d1d44a4","updateTask(uint8,string)":"db6e1d32"},"id":16}