{"abi":[{"type":"constructor","inputs":[{"name":"_tokenName","type":"string","internalType":"string"},{"name":"_tokenSymbol","type":"string","internalType":"string"},{"name":"_initialSupply","type":"uint256","internalType":"uint256"}],"stateMutability":"nonpayable"},{"type":"function","name":"allowance","inputs":[{"name":"_owner","type":"address","internalType":"address"},{"name":"_spender","type":"address","internalType":"address"}],"outputs":[{"name":"","type":"uint256","internalType":"uint256"}],"stateMutability":"view"},{"type":"function","name":"approve","inputs":[{"name":"_spender","type":"address","internalType":"address"},{"name":"_value","type":"uint256","internalType":"uint256"}],"outputs":[{"name":"","type":"bool","internalType":"bool"}],"stateMutability":"nonpayable"},{"type":"function","name":"balanceOf","inputs":[{"name":"_owner","type":"address","internalType":"address"}],"outputs":[{"name":"","type":"uint256","internalType":"uint256"}],"stateMutability":"view"},{"type":"function","name":"burn","inputs":[{"name":"_value","type":"uint256","internalType":"uint256"}],"outputs":[],"stateMutability":"nonpayable"},{"type":"function","name":"decimals","inputs":[],"outputs":[{"name":"","type":"uint8","internalType":"uint8"}],"stateMutability":"pure"},{"type":"function","name":"mint","inputs":[{"name":"_to","type":"address","internalType":"address"},{"name":"_value","type":"uint256","internalType":"uint256"}],"outputs":[],"stateMutability":"nonpayable"},{"type":"function","name":"name","inputs":[],"outputs":[{"name":"","type":"string","internalType":"string"}],"stateMutability":"view"},{"type":"function","name":"symbol","inputs":[],"outputs":[{"name":"","type":"string","internalType":"string"}],"stateMutability":"view"},{"type":"function","name":"totalSupply","inputs":[],"outputs":[{"name":"","type":"uint256","internalType":"uint256"}],"stateMutability":"view"},{"type":"function","name":"transfer","inputs":[{"name":"_to","type":"address","internalType":"address"},{"name":"_value","type":"uint256","internalType":"uint256"}],"outputs":[{"name":"","type":"bool","internalType":"bool"}],"stateMutability":"nonpayable"},{"type":"function","name":"transferFrom","inputs":[{"name":"_from","type":"address","internalType":"address"},{"name":"_to","type":"address","internalType":"address"},{"name":"_value","type":"uint256","internalType":"uint256"}],"outputs":[{"name":"","type":"bool","internalType":"bool"}],"stateMutability":"nonpayable"},{"type":"event","name":"Approval","inputs":[{"name":"owner","type":"address","indexed":true,"internalType":"address"},{"name":"spender","type":"address","indexed":true,"internalType":"address"},{"name":"value","type":"uint256","indexed":false,"internalType":"uint256"}],"anonymous":false},{"type":"event","name":"Transfer","inputs":[{"name":"owner","type":"address","indexed":true,"internalType":"address"},{"name":"to","type":"address","indexed":true,"internalType":"address"},{"name":"value","type":"uint256","indexed":false,"internalType":"uint256"}],"anonymous":false}],"bytecode":{"object":"0x608060405234801561000f575f5ffd5b50604051611ed2380380611ed2833981810160405281019061003191906102c6565b3360035f6101000a81548173ffffffffffffffffffffffffffffffffffffffff021916908373ffffffffffffffffffffffffffffffffffffffff160217905550825f908161007f9190610566565b508060028190555081600190816100969190610566565b508060045f3373ffffffffffffffffffffffffffffffffffffffff1673ffffffffffffffffffffffffffffffffffffffff1681526020019081526020015f20819055503373ffffffffffffffffffffffffffffffffffffffff165f73ffffffffffffffffffffffffffffffffffffffff167fddf252ad1be2c89b69c2b068fc378daa952ba7f163c4a11628f55a4df523b3ef836040516101369190610644565b60405180910390a350505061065d565b5f604051905090565b5f5ffd5b5f5ffd5b5f5ffd5b5f5ffd5b5f601f19601f8301169050919050565b7f4e487b71000000000000000000000000000000000000000000000000000000005f52604160045260245ffd5b6101a58261015f565b810181811067ffffffffffffffff821117156101c4576101c361016f565b5b80604052505050565b5f6101d6610146565b90506101e2828261019c565b919050565b5f67ffffffffffffffff8211156102015761020061016f565b5b61020a8261015f565b9050602081019050919050565b8281835e5f83830152505050565b5f610237610232846101e7565b6101cd565b9050828152602081018484840111156102535761025261015b565b5b61025e848285610217565b509392505050565b5f82601f83011261027a57610279610157565b5b815161028a848260208601610225565b91505092915050565b5f819050919050565b6102a581610293565b81146102af575f5ffd5b50565b5f815190506102c08161029c565b92915050565b5f5f5f606084860312156102dd576102dc61014f565b5b5f84015167ffffffffffffffff8111156102fa576102f9610153565b5b61030686828701610266565b935050602084015167ffffffffffffffff81111561032757610326610153565b5b61033386828701610266565b9250506040610344868287016102b2565b9150509250925092565b5f81519050919050565b7f4e487b71000000000000000000000000000000000000000000000000000000005f52602260045260245ffd5b5f600282049050600182168061039c57607f821691505b6020821081036103af576103ae610358565b5b50919050565b5f819050815f5260205f209050919050565b5f6020601f8301049050919050565b5f82821b905092915050565b5f600883026104117fffffffffffffffffffffffffffffffffffffffffffffffffffffffffffffffff826103d6565b61041b86836103d6565b95508019841693508086168417925050509392505050565b5f819050919050565b5f61045661045161044c84610293565b610433565b610293565b9050919050565b5f819050919050565b61046f8361043c565b61048361047b8261045d565b8484546103e2565b825550505050565b5f5f905090565b61049a61048b565b6104a5818484610466565b505050565b5f5b828110156104cb576104c05f828401610492565b6001810190506104ac565b505050565b601f82111561051e578282111561051d576104ea816103b5565b6104f3836103c7565b6104fc856103c7565b6020861015610509575f90505b808301610518828403826104aa565b505050505b5b505050565b5f82821c905092915050565b5f61053e5f1984600802610523565b1980831691505092915050565b5f610556838361052f565b9150826002028217905092915050565b61056f8261034e565b67ffffffffffffffff8111156105885761058761016f565b5b6105928254610385565b61059d8282856104d0565b5f60209050601f8311600181146105ce575f84156105bc578287015190505b6105c6858261054b565b86555061062d565b601f1984166105dc866103b5565b5f5b82811015610603578489015182556001820191506020850194506020810190506105de565b86831015610620578489015161061c601f89168261052f565b8355505b6001600288020188555050505b505050505050565b61063e81610293565b82525050565b5f6020820190506106575f830184610635565b92915050565b6118688061066a5f395ff3fe608060405234801561000f575f5ffd5b50600436106100a7575f3560e01c806340c10f191161006f57806340c10f191461016557806342966c681461018157806370a082311461019d57806395d89b41146101cd578063a9059cbb146101eb578063dd62ed3e1461021b576100a7565b806306fdde03146100ab578063095ea7b3146100c957806318160ddd146100f957806323b872dd14610117578063313ce56714610147575b5f5ffd5b6100b361024b565b6040516100c091906110ec565b60405180910390f35b6100e360048036038101906100de919061119d565b6102da565b6040516100f091906111f5565b60405180910390f35b6101016104f9565b60405161010e919061121d565b60405180910390f35b610131600480360381019061012c9190611236565b610502565b60405161013e91906111f5565b60405180910390f35b61014f610889565b60405161015c91906112a1565b60405180910390f35b61017f600480360381019061017a919061119d565b610891565b005b61019b600480360381019061019691906112ba565b610a62565b005b6101b760048036038101906101b291906112e5565b610c44565b6040516101c4919061121d565b60405180910390f35b6101d5610cf8565b6040516101e291906110ec565b60405180910390f35b6102056004803603810190610200919061119d565b610d88565b60405161021291906111f5565b60405180910390f35b61023560048036038101906102309190611310565b610ffa565b604051610242919061121d565b60405180910390f35b60605f80546102599061137b565b80601f01602080910402602001604051908101604052809291908181526020018280546102859061137b565b80156102d05780601f106102a7576101008083540402835291602001916102d0565b820191905f5260205f20905b8154815290600101906020018083116102b357829003601f168201915b5050505050905090565b5f5f73ffffffffffffffffffffffffffffffffffffffff168373ffffffffffffffffffffffffffffffffffffffff1603610349576040517f08c379a0000000000000000000000000000000000000000000000000000000008152600401610340906113f5565b60405180910390fd5b5f8214806103ce57505f60055f3373ffffffffffffffffffffffffffffffffffffffff1673ffffffffffffffffffffffffffffffffffffffff1681526020019081526020015f205f8573ffffffffffffffffffffffffffffffffffffffff1673ffffffffffffffffffffffffffffffffffffffff1681526020019081526020015f2054145b61040d576040517f08c379a000000000000000000000000000000000000000000000000000000000815260040161040490611483565b60405180910390fd5b8160055f3373ffffffffffffffffffffffffffffffffffffffff1673ffffffffffffffffffffffffffffffffffffffff1681526020019081526020015f205f8573ffffffffffffffffffffffffffffffffffffffff1673ffffffffffffffffffffffffffffffffffffffff1681526020019081526020015f20819055508273ffffffffffffffffffffffffffffffffffffffff163373ffffffffffffffffffffffffffffffffffffffff167f8c5be1e5ebec7d5bd14f71427d1e84f3dd0314c0f7b2291e5b200ac8c7c3b925846040516104e7919061121d565b60405180910390a36001905092915050565b5f600254905090565b5f5f73ffffffffffffffffffffffffffffffffffffffff168473ffffffffffffffffffffffffffffffffffffffff161415801561056b57505f73ffffffffffffffffffffffffffffffffffffffff168373ffffffffffffffffffffffffffffffffffffffff1614155b6105aa576040517f08c379a00000000000000000000000000000000000000000000000000000000081526004016105a1906113f5565b60405180910390fd5b60055f8573ffffffffffffffffffffffffffffffffffffffff1673ffffffffffffffffffffffffffffffffffffffff1681526020019081526020015f205f3373ffffffffffffffffffffffffffffffffffffffff1673ffffffffffffffffffffffffffffffffffffffff1681526020019081526020015f2054821115610665576040517f08c379a000000000000000000000000000000000000000000000000000000000815260040161065c906114eb565b60405180910390fd5b8160045f8673ffffffffffffffffffffffffffffffffffffffff1673ffffffffffffffffffffffffffffffffffffffff1681526020019081526020015f205410156106e5576040517f08c379a00000000000000000000000000000000000000000000000000000000081526004016106dc90611553565b60405180910390fd5b8160055f8673ffffffffffffffffffffffffffffffffffffffff1673ffffffffffffffffffffffffffffffffffffffff1681526020019081526020015f205f3373ffffffffffffffffffffffffffffffffffffffff1673ffffffffffffffffffffffffffffffffffffffff1681526020019081526020015f205f82825461076c919061159e565b925050819055508160045f8673ffffffffffffffffffffffffffffffffffffffff1673ffffffffffffffffffffffffffffffffffffffff1681526020019081526020015f205f8282546107bf919061159e565b925050819055508160045f8573ffffffffffffffffffffffffffffffffffffffff1673ffffffffffffffffffffffffffffffffffffffff1681526020019081526020015f205f82825461081291906115d1565b925050819055508273ffffffffffffffffffffffffffffffffffffffff168473ffffffffffffffffffffffffffffffffffffffff167fddf252ad1be2c89b69c2b068fc378daa952ba7f163c4a11628f55a4df523b3ef84604051610876919061121d565b60405180910390a3600190509392505050565b5f6012905090565b60035f9054906101000a900473ffffffffffffffffffffffffffffffffffffffff1673ffffffffffffffffffffffffffffffffffffffff163373ffffffffffffffffffffffffffffffffffffffff1614610920576040517f08c379a000000000000000000000000000000000000000000000000000000000815260040161091790611674565b60405180910390fd5b5f73ffffffffffffffffffffffffffffffffffffffff168273ffffffffffffffffffffffffffffffffffffffff160361098e576040517f08c379a0000000000000000000000000000000000000000000000000000000008152600401610985906116dc565b60405180910390fd5b8060025f82825461099f91906115d1565b925050819055508060045f8473ffffffffffffffffffffffffffffffffffffffff1673ffffffffffffffffffffffffffffffffffffffff1681526020019081526020015f205f8282546109f291906115d1565b925050819055508173ffffffffffffffffffffffffffffffffffffffff165f73ffffffffffffffffffffffffffffffffffffffff167fddf252ad1be2c89b69c2b068fc378daa952ba7f163c4a11628f55a4df523b3ef83604051610a56919061121d565b60405180910390a35050565b60035f9054906101000a900473ffffffffffffffffffffffffffffffffffffffff1673ffffffffffffffffffffffffffffffffffffffff163373ffffffffffffffffffffffffffffffffffffffff1614610af1576040517f08c379a0000000000000000000000000000000000000000000000000000000008152600401610ae890611674565b60405180910390fd5b8060045f3373ffffffffffffffffffffffffffffffffffffffff1673ffffffffffffffffffffffffffffffffffffffff1681526020019081526020015f20541015610b71576040517f08c379a0000000000000000000000000000000000000000000000000000000008152600401610b6890611744565b60405180910390fd5b8060045f3373ffffffffffffffffffffffffffffffffffffffff1673ffffffffffffffffffffffffffffffffffffffff1681526020019081526020015f205f828254610bbd919061159e565b925050819055508060025f828254610bd5919061159e565b925050819055505f73ffffffffffffffffffffffffffffffffffffffff163373ffffffffffffffffffffffffffffffffffffffff167fddf252ad1be2c89b69c2b068fc378daa952ba7f163c4a11628f55a4df523b3ef83604051610c39919061121d565b60405180910390a350565b5f5f73ffffffffffffffffffffffffffffffffffffffff168273ffffffffffffffffffffffffffffffffffffffff1603610cb3576040517f08c379a0000000000000000000000000000000000000000000000000000000008152600401610caa906113f5565b60405180910390fd5b60045f8373ffffffffffffffffffffffffffffffffffffffff1673ffffffffffffffffffffffffffffffffffffffff1681526020019081526020015f20549050919050565b606060018054610d079061137b565b80601f0160208091040260200160405190810160405280929190818152602001828054610d339061137b565b8015610d7e5780601f10610d5557610100808354040283529160200191610d7e565b820191905f5260205f20905b815481529060010190602001808311610d6157829003601f168201915b5050505050905090565b5f5f73ffffffffffffffffffffffffffffffffffffffff168373ffffffffffffffffffffffffffffffffffffffff1603610df7576040517f08c379a0000000000000000000000000000000000000000000000000000000008152600401610dee906117ac565b60405180910390fd5b8160045f3373ffffffffffffffffffffffffffffffffffffffff1673ffffffffffffffffffffffffffffffffffffffff1681526020019081526020015f20541015610e77576040517f08c379a0000000000000000000000000000000000000000000000000000000008152600401610e6e90611814565b60405180910390fd5b8160045f3373ffffffffffffffffffffffffffffffffffffffff1673ffffffffffffffffffffffffffffffffffffffff1681526020019081526020015f2054610ec0919061159e565b60045f3373ffffffffffffffffffffffffffffffffffffffff1673ffffffffffffffffffffffffffffffffffffffff1681526020019081526020015f20819055508160045f8573ffffffffffffffffffffffffffffffffffffffff1673ffffffffffffffffffffffffffffffffffffffff1681526020019081526020015f2054610f4a91906115d1565b60045f8573ffffffffffffffffffffffffffffffffffffffff1673ffffffffffffffffffffffffffffffffffffffff1681526020019081526020015f20819055508273ffffffffffffffffffffffffffffffffffffffff163373ffffffffffffffffffffffffffffffffffffffff167fddf252ad1be2c89b69c2b068fc378daa952ba7f163c4a11628f55a4df523b3ef84604051610fe8919061121d565b60405180910390a36001905092915050565b5f60055f8473ffffffffffffffffffffffffffffffffffffffff1673ffffffffffffffffffffffffffffffffffffffff1681526020019081526020015f205f8373ffffffffffffffffffffffffffffffffffffffff1673ffffffffffffffffffffffffffffffffffffffff1681526020019081526020015f2054905092915050565b5f81519050919050565b5f82825260208201905092915050565b8281835e5f83830152505050565b5f601f19601f8301169050919050565b5f6110be8261107c565b6110c88185611086565b93506110d8818560208601611096565b6110e1816110a4565b840191505092915050565b5f6020820190508181035f83015261110481846110b4565b905092915050565b5f5ffd5b5f73ffffffffffffffffffffffffffffffffffffffff82169050919050565b5f61113982611110565b9050919050565b6111498161112f565b8114611153575f5ffd5b50565b5f8135905061116481611140565b92915050565b5f819050919050565b61117c8161116a565b8114611186575f5ffd5b50565b5f8135905061119781611173565b92915050565b5f5f604083850312156111b3576111b261110c565b5b5f6111c085828601611156565b92505060206111d185828601611189565b9150509250929050565b5f8115159050919050565b6111ef816111db565b82525050565b5f6020820190506112085f8301846111e6565b92915050565b6112178161116a565b82525050565b5f6020820190506112305f83018461120e565b92915050565b5f5f5f6060848603121561124d5761124c61110c565b5b5f61125a86828701611156565b935050602061126b86828701611156565b925050604061127c86828701611189565b9150509250925092565b5f60ff82169050919050565b61129b81611286565b82525050565b5f6020820190506112b45f830184611292565b92915050565b5f602082840312156112cf576112ce61110c565b5b5f6112dc84828501611189565b91505092915050565b5f602082840312156112fa576112f961110c565b5b5f61130784828501611156565b91505092915050565b5f5f604083850312156113265761132561110c565b5b5f61133385828601611156565b925050602061134485828601611156565b9150509250929050565b7f4e487b71000000000000000000000000000000000000000000000000000000005f52602260045260245ffd5b5f600282049050600182168061139257607f821691505b6020821081036113a5576113a461134e565b5b50919050565b7f61646472657373207a65726f20646574656374656400000000000000000000005f82015250565b5f6113df601583611086565b91506113ea826113ab565b602082019050919050565b5f6020820190508181035f83015261140c816113d3565b9050919050565b7f45524332303a206d75737420726573657420616c6c6f77616e636520746f20305f8201527f2066697273740000000000000000000000000000000000000000000000000000602082015250565b5f61146d602683611086565b915061147882611413565b604082019050919050565b5f6020820190508181035f83015261149a81611461565b9050919050565b7f6e6f7420617070726f76656400000000000000000000000000000000000000005f82015250565b5f6114d5600c83611086565b91506114e0826114a1565b602082019050919050565b5f6020820190508181035f830152611502816114c9565b9050919050565b7f696e73756666696369656e742062616c616e63650000000000000000000000005f82015250565b5f61153d601483611086565b915061154882611509565b602082019050919050565b5f6020820190508181035f83015261156a81611531565b9050919050565b7f4e487b71000000000000000000000000000000000000000000000000000000005f52601160045260245ffd5b5f6115a88261116a565b91506115b38361116a565b92508282039050818111156115cb576115ca611571565b5b92915050565b5f6115db8261116a565b91506115e68361116a565b92508282019050808211156115fe576115fd611571565b5b92915050565b7f4f6e6c79206f776e65722063616e2063616c6c20746869732066756e6374696f5f8201527f6e00000000000000000000000000000000000000000000000000000000000000602082015250565b5f61165e602183611086565b915061166982611604565b604082019050919050565b5f6020820190508181035f83015261168b81611652565b9050919050565b7f63616e6e6f74206d696e7420746f207a65726f206164647265737300000000005f82015250565b5f6116c6601b83611086565b91506116d182611692565b602082019050919050565b5f6020820190508181035f8301526116f3816116ba565b9050919050565b7f496e73756666696369656e742062616c616e636520746f206275726e000000005f82015250565b5f61172e601c83611086565b9150611739826116fa565b602082019050919050565b5f6020820190508181035f83015261175b81611722565b9050919050565b7f41646472657373207a65726f20646574656374656400000000000000000000005f82015250565b5f611796601583611086565b91506117a182611762565b602082019050919050565b5f6020820190508181035f8301526117c38161178a565b9050919050565b7f496e73756666696369656e742066756e647300000000000000000000000000005f82015250565b5f6117fe601283611086565b9150611809826117ca565b602082019050919050565b5f6020820190508181035f83015261182b816117f2565b905091905056fea264697066735822122015f788b4cd79de8628f6bfc801d54c8b8e528531295d44604b0946280c30433664736f6c63430008210033","linkReferences":{}},"methodIdentifiers":{"allowance(address,address)":"dd62ed3e","approve(address,uint256)":"095ea7b3","balanceOf(address)":"70a08231","burn(uint256)":"42966c68","decimals()":"313ce567","mint(address,uint256)":"40c10f19","name()":"06fdde03","symbol()":"95d89b41","totalSupply()":"18160ddd","transfer(address,uint256)":"a9059cbb","transferFrom(address,address,uint256)":"23b872dd"},"id":16}