{"abi":[{"type":"function","name":"depositToken","inputs":[{"name":"token","type":"address","internalType":"address"},{"name":"amount","type":"uint256","internalType":"uint256"}],"outputs":[],"stateMutability":"nonpayable"},{"type":"function","name":"deposithETH","inputs":[],"outputs":[],"stateMutability":"payable"},{"type":"function","name":"ethBalances","inputs":[{"name":"","type":"address","internalType":"address"}],"outputs":[{"name":"","type":"uint256","internalType":"uint256"}],"stateMutability":"view"},{"type":"function","name":"getEthBalance","inputs":[],"outputs":[{"name":"","type":"uint256","internalType":"uint256"}],"stateMutability":"view"},{"type":"function","name":"getTokenBalance","inputs":[{"name":"token","type":"address","internalType":"address"}],"outputs":[{"name":"","type":"uint256","internalType":"uint256"}],"stateMutability":"view"},{"type":"function","name":"tokenBalances","inputs":[{"name":"","type":"address","internalType":"address"},{"name":"","type":"address","internalType":"address"}],"outputs":[{"name":"","type":"uint256","internalType":"uint256"}],"stateMutability":"view"},{"type":"function","name":"withdrawETH","inputs":[{"name":"amount","type":"uint256","internalType":"uint256"}],"outputs":[],"stateMutability":"nonpayable"},{"type":"function","name":"withdrawToken","inputs":[{"name":"token","type":"address","internalType":"address"},{"name":"amount","type":"uint256","internalType":"uint256"}],"outputs":[],"stateMutability":"nonpayable"},{"type":"event","name":"ETHDeposited","inputs":[{"name":"user","type":"address","indexed":true,"internalType":"address"},{"name":"amount","type":"uint256","indexed":false,"internalType":"uint256"}],"anonymous":false},{"type":"event","name":"ETHWithdrawn","inputs":[{"name":"user","type":"address","indexed":true,"internalType":"address"},{"name":"amount","type":"uint256","indexed":false,"internalType":"uint256"}],"anonymous":false},{"type":"event","name":"TokenDeposited","inputs":[{"name":"user","type":"address","indexed":true,"internalType":"address"},{"name":"token","type":"address","indexed":true,"internalType":"address"},{"name":"amount","type":"uint256","indexed":false,"internalType":"uint256"}],"anonymous":false},{"type":"event","name":"TokenWithdrawn","inputs":[{"name":"user","type":"address","indexed":true,"internalType":"address"},{"name":"token","type":"address","indexed":true,"internalType":"address"},{"name":"amount","type":"uint256","indexed":false,"internalType":"uint256"}],"anonymous":false}],"bytecode":{"object":"0x6080604052348015600e575f5ffd5b50610e7a8061001c5f395ff3fe60806040526004361061007a575f3560e01c806370ed0ada1161004d57806370ed0ada1461015a5780639e281a9814610184578063c7c4e3f2146101ac578063f14210a6146101b65761007a565b8063338b5dea1461007e5780633aecd0e3146100a65780633cfba0e3146100e25780634dbf6c5a1461011e575b5f5ffd5b348015610089575f5ffd5b506100a4600480360381019061009f91906109fb565b6101de565b005b3480156100b1575f5ffd5b506100cc60048036038101906100c79190610a39565b610395565b6040516100d99190610a73565b60405180910390f35b3480156100ed575f5ffd5b5061010860048036038101906101039190610a39565b610416565b6040516101159190610a73565b60405180910390f35b348015610129575f5ffd5b50610144600480360381019061013f9190610a8c565b61042a565b6040516101519190610a73565b60405180910390f35b348015610165575f5ffd5b5061016e61044a565b60405161017b9190610a73565b60405180910390f35b34801561018f575f5ffd5b506101aa60048036038101906101a591906109fb565b61048d565b005b6101b46106bb565b005b3480156101c1575f5ffd5b506101dc60048036038101906101d79190610aca565b61079f565b005b5f8111610220576040517f08c379a000000000000000000000000000000000000000000000000000000000815260040161021790610b4f565b60405180910390fd5b8173ffffffffffffffffffffffffffffffffffffffff166323b872dd3330846040518463ffffffff1660e01b815260040161025d93929190610b7c565b6020604051808303815f875af1158015610279573d5f5f3e3d5ffd5b505050506040513d601f19601f8201168201806040525081019061029d9190610be6565b508060015f3373ffffffffffffffffffffffffffffffffffffffff1673ffffffffffffffffffffffffffffffffffffffff1681526020019081526020015f205f8473ffffffffffffffffffffffffffffffffffffffff1673ffffffffffffffffffffffffffffffffffffffff1681526020019081526020015f205f8282546103259190610c3e565b925050819055508173ffffffffffffffffffffffffffffffffffffffff163373ffffffffffffffffffffffffffffffffffffffff167ff1444b5cad7ce70cb018d1b8edc8618fe303f3c7f034d8d572a6e27facbf2bef836040516103899190610a73565b60405180910390a35050565b5f60015f3373ffffffffffffffffffffffffffffffffffffffff1673ffffffffffffffffffffffffffffffffffffffff1681526020019081526020015f205f8373ffffffffffffffffffffffffffffffffffffffff1673ffffffffffffffffffffffffffffffffffffffff1681526020019081526020015f20549050919050565b5f602052805f5260405f205f915090505481565b6001602052815f5260405f20602052805f5260405f205f91509150505481565b5f5f5f3373ffffffffffffffffffffffffffffffffffffffff1673ffffffffffffffffffffffffffffffffffffffff1681526020019081526020015f2054905090565b8060015f3373ffffffffffffffffffffffffffffffffffffffff1673ffffffffffffffffffffffffffffffffffffffff1681526020019081526020015f205f8473ffffffffffffffffffffffffffffffffffffffff1673ffffffffffffffffffffffffffffffffffffffff1681526020019081526020015f20541015610548576040517f08c379a000000000000000000000000000000000000000000000000000000000815260040161053f90610cbb565b60405180910390fd5b8060015f3373ffffffffffffffffffffffffffffffffffffffff1673ffffffffffffffffffffffffffffffffffffffff1681526020019081526020015f205f8473ffffffffffffffffffffffffffffffffffffffff1673ffffffffffffffffffffffffffffffffffffffff1681526020019081526020015f205f8282546105cf9190610cd9565b925050819055508173ffffffffffffffffffffffffffffffffffffffff1663a9059cbb33836040518363ffffffff1660e01b8152600401610611929190610d0c565b6020604051808303815f875af115801561062d573d5f5f3e3d5ffd5b505050506040513d601f19601f820116820180604052508101906106519190610be6565b508173ffffffffffffffffffffffffffffffffffffffff163373ffffffffffffffffffffffffffffffffffffffff167f8210728e7c071f615b840ee026032693858fbcd5e5359e67e438c890f59e5620836040516106af9190610a73565b60405180910390a35050565b5f34116106fd576040517f08c379a00000000000000000000000000000000000000000000000000000000081526004016106f490610d7d565b60405180910390fd5b345f5f3373ffffffffffffffffffffffffffffffffffffffff1673ffffffffffffffffffffffffffffffffffffffff1681526020019081526020015f205f8282546107489190610c3e565b925050819055503373ffffffffffffffffffffffffffffffffffffffff167f6c703791f399558807424f489ccd811c72b4ff0b74af547264fad7c646776df0346040516107959190610a73565b60405180910390a2565b805f5f3373ffffffffffffffffffffffffffffffffffffffff1673ffffffffffffffffffffffffffffffffffffffff1681526020019081526020015f2054101561081e576040517f08c379a000000000000000000000000000000000000000000000000000000000815260040161081590610cbb565b60405180910390fd5b805f5f3373ffffffffffffffffffffffffffffffffffffffff1673ffffffffffffffffffffffffffffffffffffffff1681526020019081526020015f205f8282546108699190610cd9565b925050819055505f3373ffffffffffffffffffffffffffffffffffffffff168260405161089590610dc8565b5f6040518083038185875af1925050503d805f81146108cf576040519150601f19603f3d011682016040523d82523d5f602084013e6108d4565b606091505b5050905080610918576040517f08c379a000000000000000000000000000000000000000000000000000000000815260040161090f90610e26565b60405180910390fd5b3373ffffffffffffffffffffffffffffffffffffffff167f94b2de810873337ed265c5f8cf98c9cffefa06b8607f9a2f1fbaebdfbcfbef1c8360405161095e9190610a73565b60405180910390a25050565b5f5ffd5b5f73ffffffffffffffffffffffffffffffffffffffff82169050919050565b5f6109978261096e565b9050919050565b6109a78161098d565b81146109b1575f5ffd5b50565b5f813590506109c28161099e565b92915050565b5f819050919050565b6109da816109c8565b81146109e4575f5ffd5b50565b5f813590506109f5816109d1565b92915050565b5f5f60408385031215610a1157610a1061096a565b5b5f610a1e858286016109b4565b9250506020610a2f858286016109e7565b9150509250929050565b5f60208284031215610a4e57610a4d61096a565b5b5f610a5b848285016109b4565b91505092915050565b610a6d816109c8565b82525050565b5f602082019050610a865f830184610a64565b92915050565b5f5f60408385031215610aa257610aa161096a565b5b5f610aaf858286016109b4565b9250506020610ac0858286016109b4565b9150509250929050565b5f60208284031215610adf57610ade61096a565b5b5f610aec848285016109e7565b91505092915050565b5f82825260208201905092915050565b7f416d6f756e74206d757374206265203e203000000000000000000000000000005f82015250565b5f610b39601283610af5565b9150610b4482610b05565b602082019050919050565b5f6020820190508181035f830152610b6681610b2d565b9050919050565b610b768161098d565b82525050565b5f606082019050610b8f5f830186610b6d565b610b9c6020830185610b6d565b610ba96040830184610a64565b949350505050565b5f8115159050919050565b610bc581610bb1565b8114610bcf575f5ffd5b50565b5f81519050610be081610bbc565b92915050565b5f60208284031215610bfb57610bfa61096a565b5b5f610c0884828501610bd2565b91505092915050565b7f4e487b71000000000000000000000000000000000000000000000000000000005f52601160045260245ffd5b5f610c48826109c8565b9150610c53836109c8565b9250828201905080821115610c6b57610c6a610c11565b5b92915050565b7f496e73756666696369656e742062616c616e63650000000000000000000000005f82015250565b5f610ca5601483610af5565b9150610cb082610c71565b602082019050919050565b5f6020820190508181035f830152610cd281610c99565b9050919050565b5f610ce3826109c8565b9150610cee836109c8565b9250828203905081811115610d0657610d05610c11565b5b92915050565b5f604082019050610d1f5f830185610b6d565b610d2c6020830184610a64565b9392505050565b7f4465706f736974206d7573742062652067726561746572207468616e203000005f82015250565b5f610d67601e83610af5565b9150610d7282610d33565b602082019050919050565b5f6020820190508181035f830152610d9481610d5b565b9050919050565b5f81905092915050565b50565b5f610db35f83610d9b565b9150610dbe82610da5565b5f82019050919050565b5f610dd282610da8565b9150819050919050565b7f455448207472616e73666572206661696c6564000000000000000000000000005f82015250565b5f610e10601383610af5565b9150610e1b82610ddc565b602082019050919050565b5f6020820190508181035f830152610e3d81610e04565b905091905056fea264697066735822122031f40f371d5f566c258c2b7e48880ae6a887d62746a968a909eef31e0f942e5a64736f6c63430008210033","linkReferences":{}},"methodIdentifiers":{"depositToken(address,uint256)":"338b5dea","deposithETH()":"c7c4e3f2","ethBalances(address)":"3cfba0e3","getEthBalance()":"70ed0ada","getTokenBalance(address)":"3aecd0e3","tokenBalances(address,address)":"4dbf6c5a","withdrawETH(uint256)":"f14210a6","withdrawToken(address,uint256)":"9e281a98"},"id":16}