{"abi":[{"type":"constructor","inputs":[{"name":"_token","type":"address","internalType":"address"}],"stateMutability":"nonpayable"},{"type":"function","name":"depositEth","inputs":[],"outputs":[],"stateMutability":"payable"},{"type":"function","name":"depositToken","inputs":[{"name":"amount","type":"uint256","internalType":"uint256"}],"outputs":[],"stateMutability":"nonpayable"},{"type":"function","name":"ethBalances","inputs":[{"name":"","type":"address","internalType":"address"}],"outputs":[{"name":"","type":"uint256","internalType":"uint256"}],"stateMutability":"view"},{"type":"function","name":"getEthBalance","inputs":[],"outputs":[{"name":"","type":"uint256","internalType":"uint256"}],"stateMutability":"view"},{"type":"function","name":"getTokenBalance","inputs":[],"outputs":[{"name":"","type":"uint256","internalType":"uint256"}],"stateMutability":"view"},{"type":"function","name":"token","inputs":[],"outputs":[{"name":"","type":"address","internalType":"contract ERC20"}],"stateMutability":"view"},{"type":"function","name":"tokenBalances","inputs":[{"name":"","type":"address","internalType":"address"}],"outputs":[{"name":"","type":"uint256","internalType":"uint256"}],"stateMutability":"view"},{"type":"function","name":"withdrawEth","inputs":[{"name":"amount","type":"uint256","internalType":"uint256"}],"outputs":[],"stateMutability":"nonpayable"},{"type":"function","name":"withdrawToken","inputs":[{"name":"amount","type":"uint256","internalType":"uint256"}],"outputs":[],"stateMutability":"nonpayable"},{"type":"event","name":"ETHDeposited","inputs":[{"name":"user","type":"address","indexed":true,"internalType":"address"},{"name":"amount","type":"uint256","indexed":false,"internalType":"uint256"}],"anonymous":false},{"type":"event","name":"ETHWithdrawn","inputs":[{"name":"user","type":"address","indexed":true,"internalType":"address"},{"name":"amount","type":"uint256","indexed":false,"internalType":"uint256"}],"anonymous":false},{"type":"event","name":"TokenDeposited","inputs":[{"name":"user","type":"address","indexed":true,"internalType":"address"},{"name":"token","type":"address","indexed":true,"internalType":"address"},{"name":"amount","type":"uint256","indexed":false,"internalType":"uint256"}],"anonymous":false},{"type":"event","name":"TokenWithdrawn","inputs":[{"name":"user","type":"address","indexed":true,"internalType":"address"},{"name":"token","type":"address","indexed":true,"internalType":"address"},{"name":"amount","type":"uint256","indexed":false,"internalType":"uint256"}],"anonymous":false}],"bytecode":{"object":"0x608060405234801561000f575f5ffd5b5060405161126b38038061126b833981810160405281019061003191906100d4565b805f5f6101000a81548173ffffffffffffffffffffffffffffffffffffffff021916908373ffffffffffffffffffffffffffffffffffffffff160217905550506100ff565b5f5ffd5b5f73ffffffffffffffffffffffffffffffffffffffff82169050919050565b5f6100a38261007a565b9050919050565b6100b381610099565b81146100bd575f5ffd5b50565b5f815190506100ce816100aa565b92915050565b5f602082840312156100e9576100e8610076565b5b5f6100f6848285016100c0565b91505092915050565b61115f8061010c5f395ff3fe608060405260043610610085575f3560e01c80636215be77116100585780636215be771461013357806370ed0ada1461015b57806382b2e25714610185578063c311d049146101af578063fc0c546a146101d757610085565b80633cfba0e314610089578063439370b1146100c557806350baa622146100cf578063523fba7f146100f7575b5f5ffd5b348015610094575f5ffd5b506100af60048036038101906100aa9190610b7f565b610201565b6040516100bc9190610bc2565b60405180910390f35b6100cd610216565b005b3480156100da575f5ffd5b506100f560048036038101906100f09190610c05565b6102fb565b005b348015610102575f5ffd5b5061011d60048036038101906101189190610b7f565b610577565b60405161012a9190610bc2565b60405180910390f35b34801561013e575f5ffd5b5061015960048036038101906101549190610c05565b61058c565b005b348015610166575f5ffd5b5061016f610866565b60405161017c9190610bc2565b60405180910390f35b348015610190575f5ffd5b506101996108aa565b6040516101a69190610bc2565b60405180910390f35b3480156101ba575f5ffd5b506101d560048036038101906101d09190610c05565b6108ee565b005b3480156101e2575f5ffd5b506101eb610afd565b6040516101f89190610c8b565b60405180910390f35b6001602052805f5260405f205f915090505481565b5f3411610258576040517f08c379a000000000000000000000000000000000000000000000000000000000815260040161024f90610cfe565b60405180910390fd5b3460015f3373ffffffffffffffffffffffffffffffffffffffff1673ffffffffffffffffffffffffffffffffffffffff1681526020019081526020015f205f8282546102a49190610d49565b925050819055503373ffffffffffffffffffffffffffffffffffffffff167f6c703791f399558807424f489ccd811c72b4ff0b74af547264fad7c646776df0346040516102f19190610bc2565b60405180910390a2565b5f811161033d576040517f08c379a000000000000000000000000000000000000000000000000000000000815260040161033490610dc6565b60405180910390fd5b8060025f3373ffffffffffffffffffffffffffffffffffffffff1673ffffffffffffffffffffffffffffffffffffffff1681526020019081526020015f205410156103bd576040517f08c379a00000000000000000000000000000000000000000000000000000000081526004016103b490610e2e565b60405180910390fd5b8060025f3373ffffffffffffffffffffffffffffffffffffffff1673ffffffffffffffffffffffffffffffffffffffff1681526020019081526020015f205f8282546104099190610e4c565b925050819055505f5f5f9054906101000a900473ffffffffffffffffffffffffffffffffffffffff1673ffffffffffffffffffffffffffffffffffffffff1663a9059cbb33846040518363ffffffff1660e01b815260040161046c929190610e8e565b6020604051808303815f875af1158015610488573d5f5f3e3d5ffd5b505050506040513d601f19601f820116820180604052508101906104ac9190610eea565b9050806104ee576040517f08c379a00000000000000000000000000000000000000000000000000000000081526004016104e590610f5f565b60405180910390fd5b5f5f9054906101000a900473ffffffffffffffffffffffffffffffffffffffff1673ffffffffffffffffffffffffffffffffffffffff163373ffffffffffffffffffffffffffffffffffffffff167f8210728e7c071f615b840ee026032693858fbcd5e5359e67e438c890f59e56208460405161056b9190610bc2565b60405180910390a35050565b6002602052805f5260405f205f915090505481565b5f81116105ce576040517f08c379a00000000000000000000000000000000000000000000000000000000081526004016105c590610dc6565b60405180910390fd5b805f5f9054906101000a900473ffffffffffffffffffffffffffffffffffffffff1673ffffffffffffffffffffffffffffffffffffffff1663dd62ed3e33306040518363ffffffff1660e01b815260040161062a929190610f7d565b602060405180830381865afa158015610645573d5f5f3e3d5ffd5b505050506040513d601f19601f820116820180604052508101906106699190610fb8565b10156106aa576040517f08c379a00000000000000000000000000000000000000000000000000000000081526004016106a19061102d565b60405180910390fd5b5f5f5f9054906101000a900473ffffffffffffffffffffffffffffffffffffffff1673ffffffffffffffffffffffffffffffffffffffff166323b872dd3330856040518463ffffffff1660e01b81526004016107089392919061104b565b6020604051808303815f875af1158015610724573d5f5f3e3d5ffd5b505050506040513d601f19601f820116820180604052508101906107489190610eea565b90508061078a576040517f08c379a000000000000000000000000000000000000000000000000000000000815260040161078190610f5f565b60405180910390fd5b8160025f3373ffffffffffffffffffffffffffffffffffffffff1673ffffffffffffffffffffffffffffffffffffffff1681526020019081526020015f205f8282546107d69190610d49565b925050819055505f5f9054906101000a900473ffffffffffffffffffffffffffffffffffffffff1673ffffffffffffffffffffffffffffffffffffffff163373ffffffffffffffffffffffffffffffffffffffff167ff1444b5cad7ce70cb018d1b8edc8618fe303f3c7f034d8d572a6e27facbf2bef8460405161085a9190610bc2565b60405180910390a35050565b5f60015f3373ffffffffffffffffffffffffffffffffffffffff1673ffffffffffffffffffffffffffffffffffffffff1681526020019081526020015f2054905090565b5f60025f3373ffffffffffffffffffffffffffffffffffffffff1673ffffffffffffffffffffffffffffffffffffffff1681526020019081526020015f2054905090565b5f8111610930576040517f08c379a000000000000000000000000000000000000000000000000000000000815260040161092790610dc6565b60405180910390fd5b8060015f3373ffffffffffffffffffffffffffffffffffffffff1673ffffffffffffffffffffffffffffffffffffffff1681526020019081526020015f205410156109b0576040517f08c379a00000000000000000000000000000000000000000000000000000000081526004016109a790610e2e565b60405180910390fd5b8060015f3373ffffffffffffffffffffffffffffffffffffffff1673ffffffffffffffffffffffffffffffffffffffff1681526020019081526020015f205f8282546109fc9190610e4c565b925050819055505f3373ffffffffffffffffffffffffffffffffffffffff1682604051610a28906110ad565b5f6040518083038185875af1925050503d805f8114610a62576040519150601f19603f3d011682016040523d82523d5f602084013e610a67565b606091505b5050905080610aab576040517f08c379a0000000000000000000000000000000000000000000000000000000008152600401610aa29061110b565b60405180910390fd5b3373ffffffffffffffffffffffffffffffffffffffff167f94b2de810873337ed265c5f8cf98c9cffefa06b8607f9a2f1fbaebdfbcfbef1c83604051610af19190610bc2565b60405180910390a25050565b5f5f9054906101000a900473ffffffffffffffffffffffffffffffffffffffff1681565b5f5ffd5b5f73ffffffffffffffffffffffffffffffffffffffff82169050919050565b5f610b4e82610b25565b9050919050565b610b5e81610b44565b8114610b68575f5ffd5b50565b5f81359050610b7981610b55565b92915050565b5f60208284031215610b9457610b93610b21565b5b5f610ba184828501610b6b565b91505092915050565b5f819050919050565b610bbc81610baa565b82525050565b5f602082019050610bd55f830184610bb3565b92915050565b610be481610baa565b8114610bee575f5ffd5b50565b5f81359050610bff81610bdb565b92915050565b5f60208284031215610c1a57610c19610b21565b5b5f610c2784828501610bf1565b91505092915050565b5f819050919050565b5f610c53610c4e610c4984610b25565b610c30565b610b25565b9050919050565b5f610c6482610c39565b9050919050565b5f610c7582610c5a565b9050919050565b610c8581610c6b565b82525050565b5f602082019050610c9e5f830184610c7c565b92915050565b5f82825260208201905092915050565b7f4465706f736974206d7573742062652067726561746572207468616e203000005f82015250565b5f610ce8601e83610ca4565b9150610cf382610cb4565b602082019050919050565b5f6020820190508181035f830152610d1581610cdc565b9050919050565b7f4e487b71000000000000000000000000000000000000000000000000000000005f52601160045260245ffd5b5f610d5382610baa565b9150610d5e83610baa565b9250828201905080821115610d7657610d75610d1c565b5b92915050565b7f416d6f756e74206d757374206265203e203000000000000000000000000000005f82015250565b5f610db0601283610ca4565b9150610dbb82610d7c565b602082019050919050565b5f6020820190508181035f830152610ddd81610da4565b9050919050565b7f496e73756666696369656e742062616c616e63650000000000000000000000005f82015250565b5f610e18601483610ca4565b9150610e2382610de4565b602082019050919050565b5f6020820190508181035f830152610e4581610e0c565b9050919050565b5f610e5682610baa565b9150610e6183610baa565b9250828203905081811115610e7957610e78610d1c565b5b92915050565b610e8881610b44565b82525050565b5f604082019050610ea15f830185610e7f565b610eae6020830184610bb3565b9392505050565b5f8115159050919050565b610ec981610eb5565b8114610ed3575f5ffd5b50565b5f81519050610ee481610ec0565b92915050565b5f60208284031215610eff57610efe610b21565b5b5f610f0c84828501610ed6565b91505092915050565b7f546f6b656e207472616e73666572206661696c656400000000000000000000005f82015250565b5f610f49601583610ca4565b9150610f5482610f15565b602082019050919050565b5f6020820190508181035f830152610f7681610f3d565b9050919050565b5f604082019050610f905f830185610e7f565b610f9d6020830184610e7f565b9392505050565b5f81519050610fb281610bdb565b92915050565b5f60208284031215610fcd57610fcc610b21565b5b5f610fda84828501610fa4565b91505092915050565b7f496e73756666696369656e7420616c6c6f77616e6365000000000000000000005f82015250565b5f611017601683610ca4565b915061102282610fe3565b602082019050919050565b5f6020820190508181035f8301526110448161100b565b9050919050565b5f60608201905061105e5f830186610e7f565b61106b6020830185610e7f565b6110786040830184610bb3565b949350505050565b5f81905092915050565b50565b5f6110985f83611080565b91506110a38261108a565b5f82019050919050565b5f6110b78261108d565b9150819050919050565b7f455448207472616e73666572206661696c6564000000000000000000000000005f82015250565b5f6110f5601383610ca4565b9150611100826110c1565b602082019050919050565b5f6020820190508181035f830152611122816110e9565b905091905056fea2646970667358221220a058cae1658747c5ccea7b72eebc6bf4498cbb037837261fda5ce803c5ba05ea64736f6c63430008210033","linkReferences":{}},"methodIdentifiers":{"depositEth()":"439370b1","depositToken(uint256)":"6215be77","ethBalances(address)":"3cfba0e3","getEthBalance()":"70ed0ada","getTokenBalance()":"82b2e257","token()":"fc0c546a","tokenBalances(address)":"523fba7f","withdrawEth(uint256)":"c311d049","withdrawToken(uint256)":"50baa622"},"id":17}