{"abi":[{"type":"constructor","inputs":[{"name":"_token","type":"address","internalType":"address"}],"stateMutability":"nonpayable"},{"type":"function","name":"getAllStaff","inputs":[],"outputs":[{"name":"","type":"tuple[]","internalType":"struct SchoolManagementSystem.Staff[]","components":[{"name":"name","type":"string","internalType":"string"},{"name":"role","type":"string","internalType":"string"},{"name":"salary","type":"uint256","internalType":"uint256"},{"name":"paymentStatus","type":"bool","internalType":"bool"},{"name":"timeStamp","type":"uint256","internalType":"uint256"},{"name":"staffAddress","type":"address","internalType":"address"}]}],"stateMutability":"view"},{"type":"function","name":"getAllStudents","inputs":[],"outputs":[{"name":"","type":"tuple[]","internalType":"struct SchoolManagementSystem.Student[]","components":[{"name":"name","type":"string","internalType":"string"},{"name":"level","type":"uint16","internalType":"uint16"},{"name":"feesPaid","type":"uint256","internalType":"uint256"},{"name":"paymentStatus","type":"bool","internalType":"bool"},{"name":"timeStamp","type":"uint256","internalType":"uint256"},{"name":"studentAddress","type":"address","internalType":"address"}]}],"stateMutability":"view"},{"type":"function","name":"owner","inputs":[],"outputs":[{"name":"","type":"address","internalType":"address"}],"stateMutability":"view"},{"type":"function","name":"payStaff","inputs":[{"name":"_staffAddress","type":"address","internalType":"address"}],"outputs":[],"stateMutability":"nonpayable"},{"type":"function","name":"registerStaff","inputs":[{"name":"_staffAddress","type":"address","internalType":"address"},{"name":"_name","type":"string","internalType":"string"},{"name":"_role","type":"string","internalType":"string"},{"name":"_salary","type":"uint256","internalType":"uint256"}],"outputs":[],"stateMutability":"nonpayable"},{"type":"function","name":"registerStudent","inputs":[{"name":"_name","type":"string","internalType":"string"},{"name":"_level","type":"uint16","internalType":"uint16"}],"outputs":[],"stateMutability":"nonpayable"},{"type":"function","name":"staffAddresses","inputs":[{"name":"","type":"uint256","internalType":"uint256"}],"outputs":[{"name":"","type":"address","internalType":"address"}],"stateMutability":"view"},{"type":"function","name":"staffs","inputs":[{"name":"","type":"address","internalType":"address"}],"outputs":[{"name":"name","type":"string","internalType":"string"},{"name":"role","type":"string","internalType":"string"},{"name":"salary","type":"uint256","internalType":"uint256"},{"name":"paymentStatus","type":"bool","internalType":"bool"},{"name":"timeStamp","type":"uint256","internalType":"uint256"},{"name":"staffAddress","type":"address","internalType":"address"}],"stateMutability":"view"},{"type":"function","name":"studentAddresses","inputs":[{"name":"","type":"uint256","internalType":"uint256"}],"outputs":[{"name":"","type":"address","internalType":"address"}],"stateMutability":"view"},{"type":"function","name":"students","inputs":[{"name":"","type":"address","internalType":"address"}],"outputs":[{"name":"name","type":"string","internalType":"string"},{"name":"level","type":"uint16","internalType":"uint16"},{"name":"feesPaid","type":"uint256","internalType":"uint256"},{"name":"paymentStatus","type":"bool","internalType":"bool"},{"name":"timeStamp","type":"uint256","internalType":"uint256"},{"name":"studentAddress","type":"address","internalType":"address"}],"stateMutability":"view"},{"type":"function","name":"token","inputs":[],"outputs":[{"name":"","type":"address","internalType":"contract SchoolToken"}],"stateMutability":"view"},{"type":"event","name":"StaffPaid","inputs":[{"name":"staff","type":"address","indexed":true,"internalType":"address"},{"name":"amount","type":"uint256","indexed":false,"internalType":"uint256"},{"name":"timestamp","type":"uint256","indexed":false,"internalType":"uint256"}],"anonymous":false},{"type":"event","name":"StaffRegistered","inputs":[{"name":"staff","type":"address","indexed":true,"internalType":"address"},{"name":"name","type":"string","indexed":false,"internalType":"string"},{"name":"role","type":"string","indexed":false,"internalType":"string"},{"name":"salary","type":"uint256","indexed":false,"internalType":"uint256"}],"anonymous":false},{"type":"event","name":"StudentRegistered","inputs":[{"name":"student","type":"address","indexed":true,"internalType":"address"},{"name":"name","type":"string","indexed":false,"internalType":"string"},{"name":"level","type":"uint16","indexed":false,"internalType":"uint16"},{"name":"amountPaid","type":"uint256","indexed":false,"internalType":"uint256"},{"name":"timestamp","type":"uint256","indexed":false,"internalType":"uint256"}],"anonymous":false}],"bytecode":{"object":"0x608060405234801561000f575f5ffd5b50604051612d59380380612d598339818101604052810190610031919061018a565b805f5f6101000a81548173ffffffffffffffffffffffffffffffffffffffff021916908373ffffffffffffffffffffffffffffffffffffffff1602179055503360015f6101000a81548173ffffffffffffffffffffffffffffffffffffffff021916908373ffffffffffffffffffffffffffffffffffffffff1602179055506107d060065f606461ffff1681526020019081526020015f208190555061138860065f60c861ffff1681526020019081526020015f2081905550611f4060065f61012c61ffff1681526020019081526020015f208190555061271060065f61019061ffff1681526020019081526020015f2081905550506101b5565b5f5ffd5b5f73ffffffffffffffffffffffffffffffffffffffff82169050919050565b5f61015982610130565b9050919050565b6101698161014f565b8114610173575f5ffd5b50565b5f8151905061018481610160565b92915050565b5f6020828403121561019f5761019e61012c565b5b5f6101ac84828501610176565b91505092915050565b612b97806101c25f395ff3fe608060405234801561000f575f5ffd5b50600436106100a7575f3560e01c8063a6c807a91161006f578063a6c807a91461014f578063b5ab682d14610184578063b7ee0adc146101b4578063e9e30927146101e9578063ef32a4dc14610207578063fc0c546a14610223576100a7565b8063032e0868146100ab57806336134e9a146100c957806361fe4a9f146100e55780638c9bffb7146101015780638da5cb5b14610131575b5f5ffd5b6100b3610241565b6040516100c09190611ac5565b60405180910390f35b6100e360048036038101906100de9190611c76565b610509565b005b6100ff60048036038101906100fa9190611d12565b6108f5565b005b61011b60048036038101906101169190611d3d565b610d20565b6040516101289190611d77565b60405180910390f35b610139610d5b565b6040516101469190611d77565b60405180910390f35b61016960048036038101906101649190611d12565b610d80565b60405161017b96959493929190611e12565b60405180910390f35b61019e60048036038101906101999190611d3d565b610e76565b6040516101ab9190611d77565b60405180910390f35b6101ce60048036038101906101c99190611d12565b610eb1565b6040516101e096959493929190611e78565b60405180910390f35b6101f1611020565b6040516101fe9190612035565b60405180910390f35b610221600480360381019061021c919061207f565b611277565b005b61022b6117e1565b6040516102389190612134565b60405180910390f35b60605f60058054905067ffffffffffffffff81111561026357610262611b28565b5b60405190808252806020026020018201604052801561029c57816020015b610289611805565b8152602001906001900390816102815790505b5090505f5f90505b6005805490508110156105015760045f600583815481106102c8576102c761214d565b5b905f5260205f20015f9054906101000a900473ffffffffffffffffffffffffffffffffffffffff1673ffffffffffffffffffffffffffffffffffffffff1673ffffffffffffffffffffffffffffffffffffffff1681526020019081526020015f206040518060c00160405290815f82018054610343906121a7565b80601f016020809104026020016040519081016040528092919081815260200182805461036f906121a7565b80156103ba5780601f10610391576101008083540402835291602001916103ba565b820191905f5260205f20905b81548152906001019060200180831161039d57829003601f168201915b505050505081526020016001820180546103d3906121a7565b80601f01602080910402602001604051908101604052809291908181526020018280546103ff906121a7565b801561044a5780601f106104215761010080835404028352916020019161044a565b820191905f5260205f20905b81548152906001019060200180831161042d57829003601f168201915b5050505050815260200160028201548152602001600382015f9054906101000a900460ff1615151515815260200160048201548152602001600582015f9054906101000a900473ffffffffffffffffffffffffffffffffffffffff1673ffffffffffffffffffffffffffffffffffffffff1673ffffffffffffffffffffffffffffffffffffffff16815250508282815181106104e9576104e861214d565b5b602002602001018190525080806001019150506102a4565b508091505090565b60015f9054906101000a900473ffffffffffffffffffffffffffffffffffffffff1673ffffffffffffffffffffffffffffffffffffffff163373ffffffffffffffffffffffffffffffffffffffff1614610598576040517f08c379a000000000000000000000000000000000000000000000000000000000815260040161058f90612221565b60405180910390fd5b5f73ffffffffffffffffffffffffffffffffffffffff168473ffffffffffffffffffffffffffffffffffffffff1603610606576040517f08c379a00000000000000000000000000000000000000000000000000000000081526004016105fd90612289565b60405180910390fd5b5f73ffffffffffffffffffffffffffffffffffffffff1660045f8673ffffffffffffffffffffffffffffffffffffffff1673ffffffffffffffffffffffffffffffffffffffff1681526020019081526020015f206005015f9054906101000a900473ffffffffffffffffffffffffffffffffffffffff1673ffffffffffffffffffffffffffffffffffffffff16146106d3576040517f08c379a00000000000000000000000000000000000000000000000000000000081526004016106ca906122f1565b60405180910390fd5b5f8111610715576040517f08c379a000000000000000000000000000000000000000000000000000000000815260040161070c90612359565b60405180910390fd5b6040518060c001604052808481526020018381526020018281526020015f151581526020015f81526020018573ffffffffffffffffffffffffffffffffffffffff1681525060045f8673ffffffffffffffffffffffffffffffffffffffff1673ffffffffffffffffffffffffffffffffffffffff1681526020019081526020015f205f820151815f0190816107aa919061251f565b5060208201518160010190816107c0919061251f565b50604082015181600201556060820151816003015f6101000a81548160ff0219169083151502179055506080820151816004015560a0820151816005015f6101000a81548173ffffffffffffffffffffffffffffffffffffffff021916908373ffffffffffffffffffffffffffffffffffffffff160217905550905050600584908060018154018082558091505060019003905f5260205f20015f9091909190916101000a81548173ffffffffffffffffffffffffffffffffffffffff021916908373ffffffffffffffffffffffffffffffffffffffff1602179055508373ffffffffffffffffffffffffffffffffffffffff167f0570677dd5add6623f3194d4b7c4793a5584045d008b20a35c400e733a7cacf68484846040516108e7939291906125ee565b60405180910390a250505050565b60015f9054906101000a900473ffffffffffffffffffffffffffffffffffffffff1673ffffffffffffffffffffffffffffffffffffffff163373ffffffffffffffffffffffffffffffffffffffff1614610984576040517f08c379a000000000000000000000000000000000000000000000000000000000815260040161097b90612221565b60405180910390fd5b5f73ffffffffffffffffffffffffffffffffffffffff1660045f8373ffffffffffffffffffffffffffffffffffffffff1673ffffffffffffffffffffffffffffffffffffffff1681526020019081526020015f206005015f9054906101000a900473ffffffffffffffffffffffffffffffffffffffff1673ffffffffffffffffffffffffffffffffffffffff1603610a51576040517f08c379a0000000000000000000000000000000000000000000000000000000008152600401610a489061267b565b60405180910390fd5b5f60045f8373ffffffffffffffffffffffffffffffffffffffff1673ffffffffffffffffffffffffffffffffffffffff1681526020019081526020015f209050806003015f9054906101000a900460ff1615610ae2576040517f08c379a0000000000000000000000000000000000000000000000000000000008152600401610ad9906126e3565b60405180910390fd5b80600201545f5f9054906101000a900473ffffffffffffffffffffffffffffffffffffffff1673ffffffffffffffffffffffffffffffffffffffff166370a08231306040518263ffffffff1660e01b8152600401610b409190611d77565b602060405180830381865afa158015610b5b573d5f5f3e3d5ffd5b505050506040513d601f19601f82011682018060405250810190610b7f9190612715565b1015610bc0576040517f08c379a0000000000000000000000000000000000000000000000000000000008152600401610bb79061278a565b60405180910390fd5b5f5f5f9054906101000a900473ffffffffffffffffffffffffffffffffffffffff1673ffffffffffffffffffffffffffffffffffffffff1663a9059cbb8484600201546040518363ffffffff1660e01b8152600401610c209291906127a8565b6020604051808303815f875af1158015610c3c573d5f5f3e3d5ffd5b505050506040513d601f19601f82011682018060405250810190610c6091906127f9565b905080610ca2576040517f08c379a0000000000000000000000000000000000000000000000000000000008152600401610c999061286e565b60405180910390fd5b6001826003015f6101000a81548160ff0219169083151502179055504282600401819055508273ffffffffffffffffffffffffffffffffffffffff167f1520ed29d9370c2127ad3d143e6d89a42413a1084093071b41dc9086f2de048c836002015442604051610d1392919061288c565b60405180910390a2505050565b60058181548110610d2f575f80fd5b905f5260205f20015f915054906101000a900473ffffffffffffffffffffffffffffffffffffffff1681565b60015f9054906101000a900473ffffffffffffffffffffffffffffffffffffffff1681565b6002602052805f5260405f205f91509050805f018054610d9f906121a7565b80601f0160208091040260200160405190810160405280929190818152602001828054610dcb906121a7565b8015610e165780601f10610ded57610100808354040283529160200191610e16565b820191905f5260205f20905b815481529060010190602001808311610df957829003601f168201915b505050505090806001015f9054906101000a900461ffff1690806002015490806003015f9054906101000a900460ff1690806004015490806005015f9054906101000a900473ffffffffffffffffffffffffffffffffffffffff16905086565b60038181548110610e85575f80fd5b905f5260205f20015f915054906101000a900473ffffffffffffffffffffffffffffffffffffffff1681565b6004602052805f5260405f205f91509050805f018054610ed0906121a7565b80601f0160208091040260200160405190810160405280929190818152602001828054610efc906121a7565b8015610f475780601f10610f1e57610100808354040283529160200191610f47565b820191905f5260205f20905b815481529060010190602001808311610f2a57829003601f168201915b505050505090806001018054610f5c906121a7565b80601f0160208091040260200160405190810160405280929190818152602001828054610f88906121a7565b8015610fd35780601f10610faa57610100808354040283529160200191610fd3565b820191905f5260205f20905b815481529060010190602001808311610fb657829003601f168201915b505050505090806002015490806003015f9054906101000a900460ff1690806004015490806005015f9054906101000a900473ffffffffffffffffffffffffffffffffffffffff16905086565b60605f60038054905067ffffffffffffffff81111561104257611041611b28565b5b60405190808252806020026020018201604052801561107b57816020015b61106861184f565b8152602001906001900390816110605790505b5090505f5f90505b60038054905081101561126f5760025f600383815481106110a7576110a661214d565b5b905f5260205f20015f9054906101000a900473ffffffffffffffffffffffffffffffffffffffff1673ffffffffffffffffffffffffffffffffffffffff1673ffffffffffffffffffffffffffffffffffffffff1681526020019081526020015f206040518060c00160405290815f82018054611122906121a7565b80601f016020809104026020016040519081016040528092919081815260200182805461114e906121a7565b80156111995780601f1061117057610100808354040283529160200191611199565b820191905f5260205f20905b81548152906001019060200180831161117c57829003601f168201915b50505050508152602001600182015f9054906101000a900461ffff1661ffff1661ffff16815260200160028201548152602001600382015f9054906101000a900460ff1615151515815260200160048201548152602001600582015f9054906101000a900473ffffffffffffffffffffffffffffffffffffffff1673ffffffffffffffffffffffffffffffffffffffff1673ffffffffffffffffffffffffffffffffffffffff16815250508282815181106112575761125661214d565b5b60200260200101819052508080600101915050611083565b508091505090565b5f60025f3373ffffffffffffffffffffffffffffffffffffffff1673ffffffffffffffffffffffffffffffffffffffff1681526020019081526020015f2060040154146112f9576040517f08c379a00000000000000000000000000000000000000000000000000000000081526004016112f0906128fd565b60405180910390fd5b5f60065f8361ffff1661ffff1681526020019081526020015f205490505f8111611358576040517f08c379a000000000000000000000000000000000000000000000000000000000815260040161134f90612965565b60405180910390fd5b805f5f9054906101000a900473ffffffffffffffffffffffffffffffffffffffff1673ffffffffffffffffffffffffffffffffffffffff166370a08231336040518263ffffffff1660e01b81526004016113b29190611d77565b602060405180830381865afa1580156113cd573d5f5f3e3d5ffd5b505050506040513d601f19601f820116820180604052508101906113f19190612715565b1015611432576040517f08c379a0000000000000000000000000000000000000000000000000000000008152600401611429906129cd565b60405180910390fd5b805f5f9054906101000a900473ffffffffffffffffffffffffffffffffffffffff1673ffffffffffffffffffffffffffffffffffffffff1663dd62ed3e33306040518363ffffffff1660e01b815260040161148e9291906129eb565b602060405180830381865afa1580156114a9573d5f5f3e3d5ffd5b505050506040513d601f19601f820116820180604052508101906114cd9190612715565b101561150e576040517f08c379a000000000000000000000000000000000000000000000000000000000815260040161150590612a5c565b60405180910390fd5b5f5f5f9054906101000a900473ffffffffffffffffffffffffffffffffffffffff1673ffffffffffffffffffffffffffffffffffffffff166323b872dd3330856040518463ffffffff1660e01b815260040161156c93929190612a7a565b6020604051808303815f875af1158015611588573d5f5f3e3d5ffd5b505050506040513d601f19601f820116820180604052508101906115ac91906127f9565b9050806115ee576040517f08c379a00000000000000000000000000000000000000000000000000000000081526004016115e590612af9565b60405180910390fd5b6040518060c001604052808581526020018461ffff1681526020018381526020016001151581526020014281526020013373ffffffffffffffffffffffffffffffffffffffff1681525060025f3373ffffffffffffffffffffffffffffffffffffffff1673ffffffffffffffffffffffffffffffffffffffff1681526020019081526020015f205f820151815f019081611688919061251f565b506020820151816001015f6101000a81548161ffff021916908361ffff160217905550604082015181600201556060820151816003015f6101000a81548160ff0219169083151502179055506080820151816004015560a0820151816005015f6101000a81548173ffffffffffffffffffffffffffffffffffffffff021916908373ffffffffffffffffffffffffffffffffffffffff160217905550905050600333908060018154018082558091505060019003905f5260205f20015f9091909190916101000a81548173ffffffffffffffffffffffffffffffffffffffff021916908373ffffffffffffffffffffffffffffffffffffffff1602179055503373ffffffffffffffffffffffffffffffffffffffff167ff3e290c08d05586cf0389e9b59a6c47e550a3804d145a2ca444422c6dda1089d858585426040516117d39493929190612b17565b60405180910390a250505050565b5f5f9054906101000a900473ffffffffffffffffffffffffffffffffffffffff1681565b6040518060c0016040528060608152602001606081526020015f81526020015f151581526020015f81526020015f73ffffffffffffffffffffffffffffffffffffffff1681525090565b6040518060c00160405280606081526020015f61ffff1681526020015f81526020015f151581526020015f81526020015f73ffffffffffffffffffffffffffffffffffffffff1681525090565b5f81519050919050565b5f82825260208201905092915050565b5f819050602082019050919050565b5f81519050919050565b5f82825260208201905092915050565b8281835e5f83830152505050565b5f601f19601f8301169050919050565b5f611907826118c5565b61191181856118cf565b93506119218185602086016118df565b61192a816118ed565b840191505092915050565b5f819050919050565b61194781611935565b82525050565b5f8115159050919050565b6119618161194d565b82525050565b5f73ffffffffffffffffffffffffffffffffffffffff82169050919050565b5f61199082611967565b9050919050565b6119a081611986565b82525050565b5f60c083015f8301518482035f8601526119c082826118fd565b915050602083015184820360208601526119da82826118fd565b91505060408301516119ef604086018261193e565b506060830151611a026060860182611958565b506080830151611a15608086018261193e565b5060a0830151611a2860a0860182611997565b508091505092915050565b5f611a3e83836119a6565b905092915050565b5f602082019050919050565b5f611a5c8261189c565b611a6681856118a6565b935083602082028501611a78856118b6565b805f5b85811015611ab35784840389528151611a948582611a33565b9450611a9f83611a46565b925060208a01995050600181019050611a7b565b50829750879550505050505092915050565b5f6020820190508181035f830152611add8184611a52565b905092915050565b5f604051905090565b5f5ffd5b5f5ffd5b611aff81611986565b8114611b09575f5ffd5b50565b5f81359050611b1a81611af6565b92915050565b5f5ffd5b5f5ffd5b7f4e487b71000000000000000000000000000000000000000000000000000000005f52604160045260245ffd5b611b5e826118ed565b810181811067ffffffffffffffff82111715611b7d57611b7c611b28565b5b80604052505050565b5f611b8f611ae5565b9050611b9b8282611b55565b919050565b5f67ffffffffffffffff821115611bba57611bb9611b28565b5b611bc3826118ed565b9050602081019050919050565b828183375f83830152505050565b5f611bf0611beb84611ba0565b611b86565b905082815260208101848484011115611c0c57611c0b611b24565b5b611c17848285611bd0565b509392505050565b5f82601f830112611c3357611c32611b20565b5b8135611c43848260208601611bde565b91505092915050565b611c5581611935565b8114611c5f575f5ffd5b50565b5f81359050611c7081611c4c565b92915050565b5f5f5f5f60808587031215611c8e57611c8d611aee565b5b5f611c9b87828801611b0c565b945050602085013567ffffffffffffffff811115611cbc57611cbb611af2565b5b611cc887828801611c1f565b935050604085013567ffffffffffffffff811115611ce957611ce8611af2565b5b611cf587828801611c1f565b9250506060611d0687828801611c62565b91505092959194509250565b5f60208284031215611d2757611d26611aee565b5b5f611d3484828501611b0c565b91505092915050565b5f60208284031215611d5257611d51611aee565b5b5f611d5f84828501611c62565b91505092915050565b611d7181611986565b82525050565b5f602082019050611d8a5f830184611d68565b92915050565b5f82825260208201905092915050565b5f611daa826118c5565b611db48185611d90565b9350611dc48185602086016118df565b611dcd816118ed565b840191505092915050565b5f61ffff82169050919050565b611dee81611dd8565b82525050565b611dfd81611935565b82525050565b611e0c8161194d565b82525050565b5f60c0820190508181035f830152611e2a8189611da0565b9050611e396020830188611de5565b611e466040830187611df4565b611e536060830186611e03565b611e606080830185611df4565b611e6d60a0830184611d68565b979650505050505050565b5f60c0820190508181035f830152611e908189611da0565b90508181036020830152611ea48188611da0565b9050611eb36040830187611df4565b611ec06060830186611e03565b611ecd6080830185611df4565b611eda60a0830184611d68565b979650505050505050565b5f81519050919050565b5f82825260208201905092915050565b5f819050602082019050919050565b611f1781611dd8565b82525050565b5f60c083015f8301518482035f860152611f3782826118fd565b9150506020830151611f4c6020860182611f0e565b506040830151611f5f604086018261193e565b506060830151611f726060860182611958565b506080830151611f85608086018261193e565b5060a0830151611f9860a0860182611997565b508091505092915050565b5f611fae8383611f1d565b905092915050565b5f602082019050919050565b5f611fcc82611ee5565b611fd68185611eef565b935083602082028501611fe885611eff565b805f5b8581101561202357848403895281516120048582611fa3565b945061200f83611fb6565b925060208a01995050600181019050611feb565b50829750879550505050505092915050565b5f6020820190508181035f83015261204d8184611fc2565b905092915050565b61205e81611dd8565b8114612068575f5ffd5b50565b5f8135905061207981612055565b92915050565b5f5f6040838503121561209557612094611aee565b5b5f83013567ffffffffffffffff8111156120b2576120b1611af2565b5b6120be85828601611c1f565b92505060206120cf8582860161206b565b9150509250929050565b5f819050919050565b5f6120fc6120f76120f284611967565b6120d9565b611967565b9050919050565b5f61210d826120e2565b9050919050565b5f61211e82612103565b9050919050565b61212e81612114565b82525050565b5f6020820190506121475f830184612125565b92915050565b7f4e487b71000000000000000000000000000000000000000000000000000000005f52603260045260245ffd5b7f4e487b71000000000000000000000000000000000000000000000000000000005f52602260045260245ffd5b5f60028204905060018216806121be57607f821691505b6020821081036121d1576121d061217a565b5b50919050565b7f4e6f7420617574686f72697a65640000000000000000000000000000000000005f82015250565b5f61220b600e83611d90565b9150612216826121d7565b602082019050919050565b5f6020820190508181035f830152612238816121ff565b9050919050565b7f496e76616c6964206164647265737300000000000000000000000000000000005f82015250565b5f612273600f83611d90565b915061227e8261223f565b602082019050919050565b5f6020820190508181035f8301526122a081612267565b9050919050565b7f537461666620616c7265616479207265676973746572656400000000000000005f82015250565b5f6122db601883611d90565b91506122e6826122a7565b602082019050919050565b5f6020820190508181035f830152612308816122cf565b9050919050565b7f496e76616c69642073616c6172790000000000000000000000000000000000005f82015250565b5f612343600e83611d90565b915061234e8261230f565b602082019050919050565b5f6020820190508181035f83015261237081612337565b9050919050565b5f819050815f5260205f209050919050565b5f6020601f8301049050919050565b5f82821b905092915050565b5f600883026123d37fffffffffffffffffffffffffffffffffffffffffffffffffffffffffffffffff82612398565b6123dd8683612398565b95508019841693508086168417925050509392505050565b5f61240f61240a61240584611935565b6120d9565b611935565b9050919050565b5f819050919050565b612428836123f5565b61243c61243482612416565b8484546123a4565b825550505050565b5f5f905090565b612453612444565b61245e81848461241f565b505050565b5f5b82811015612484576124795f82840161244b565b600181019050612465565b505050565b601f8211156124d757828211156124d6576124a381612377565b6124ac83612389565b6124b585612389565b60208610156124c2575f90505b8083016124d182840382612463565b505050505b5b505050565b5f82821c905092915050565b5f6124f75f19846008026124dc565b1980831691505092915050565b5f61250f83836124e8565b9150826002028217905092915050565b612528826118c5565b67ffffffffffffffff81111561254157612540611b28565b5b61254b82546121a7565b612556828285612489565b5f60209050601f831160018114612587575f8415612575578287015190505b61257f8582612504565b8655506125e6565b601f19841661259586612377565b5f5b828110156125bc57848901518255600182019150602085019450602081019050612597565b868310156125d957848901516125d5601f8916826124e8565b8355505b6001600288020188555050505b505050505050565b5f6060820190508181035f8301526126068186611da0565b9050818103602083015261261a8185611da0565b90506126296040830184611df4565b949350505050565b7f5374616666206e6f7420666f756e6400000000000000000000000000000000005f82015250565b5f612665600f83611d90565b915061267082612631565b602082019050919050565b5f6020820190508181035f83015261269281612659565b9050919050565b7f416c7265616479207061696400000000000000000000000000000000000000005f82015250565b5f6126cd600c83611d90565b91506126d882612699565b602082019050919050565b5f6020820190508181035f8301526126fa816126c1565b9050919050565b5f8151905061270f81611c4c565b92915050565b5f6020828403121561272a57612729611aee565b5b5f61273784828501612701565b91505092915050565b7f496e73756666696369656e7420636f6e74726163742062616c616e63650000005f82015250565b5f612774601d83611d90565b915061277f82612740565b602082019050919050565b5f6020820190508181035f8301526127a181612768565b9050919050565b5f6040820190506127bb5f830185611d68565b6127c86020830184611df4565b9392505050565b6127d88161194d565b81146127e2575f5ffd5b50565b5f815190506127f3816127cf565b92915050565b5f6020828403121561280e5761280d611aee565b5b5f61281b848285016127e5565b91505092915050565b7f53616c617279207061796d656e74206661696c656400000000000000000000005f82015250565b5f612858601583611d90565b915061286382612824565b602082019050919050565b5f6020820190508181035f8301526128858161284c565b9050919050565b5f60408201905061289f5f830185611df4565b6128ac6020830184611df4565b9392505050565b7f416c7265616479207265676973746572656400000000000000000000000000005f82015250565b5f6128e7601283611d90565b91506128f2826128b3565b602082019050919050565b5f6020820190508181035f830152612914816128db565b9050919050565b7f496e76616c6964206c6576656c000000000000000000000000000000000000005f82015250565b5f61294f600d83611d90565b915061295a8261291b565b602082019050919050565b5f6020820190508181035f83015261297c81612943565b9050919050565b7f496e73756666696369656e742066756e647300000000000000000000000000005f82015250565b5f6129b7601283611d90565b91506129c282612983565b602082019050919050565b5f6020820190508181035f8301526129e4816129ab565b9050919050565b5f6040820190506129fe5f830185611d68565b612a0b6020830184611d68565b9392505050565b7f496e73756666696369656e7420616c6c6f77616e6365000000000000000000005f82015250565b5f612a46601683611d90565b9150612a5182612a12565b602082019050919050565b5f6020820190508181035f830152612a7381612a3a565b9050919050565b5f606082019050612a8d5f830186611d68565b612a9a6020830185611d68565b612aa76040830184611df4565b949350505050565b7f466565207061796d656e74206661696c656400000000000000000000000000005f82015250565b5f612ae3601283611d90565b9150612aee82612aaf565b602082019050919050565b5f6020820190508181035f830152612b1081612ad7565b9050919050565b5f6080820190508181035f830152612b2f8187611da0565b9050612b3e6020830186611de5565b612b4b6040830185611df4565b612b586060830184611df4565b9594505050505056fea264697066735822122074390941802c8eff81c522d2b3f0e3fe1ebf275dc2f4843690e3cc8ec8fa18de64736f6c63430008210033","linkReferences":{}},"methodIdentifiers":{"getAllStaff()":"032e0868","getAllStudents()":"e9e30927","owner()":"8da5cb5b","payStaff(address)":"61fe4a9f","registerStaff(address,string,string,uint256)":"36134e9a","registerStudent(string,uint16)":"ef32a4dc","staffAddresses(uint256)":"8c9bffb7","staffs(address)":"b7ee0adc","studentAddresses(uint256)":"b5ab682d","students(address)":"a6c807a9","token()":"fc0c546a"},"id":16}