{"abi":[{"type":"constructor","inputs":[{"name":"_token","type":"address","internalType":"address"}],"stateMutability":"nonpayable"},{"type":"function","name":"getAllStaff","inputs":[],"outputs":[{"name":"","type":"tuple[]","internalType":"struct SchoolManagementSystem.Staff[]","components":[{"name":"name","type":"string","internalType":"string"},{"name":"role","type":"string","internalType":"string"},{"name":"salary","type":"uint256","internalType":"uint256"},{"name":"paymentStatusForTheMonth","type":"bool","internalType":"bool"},{"name":"totalPaymentReceived","type":"uint256","internalType":"uint256"},{"name":"hiredAt","type":"uint256","internalType":"uint256"},{"name":"lastPaymentDate","type":"uint256","internalType":"uint256"},{"name":"staffAddress","type":"address","internalType":"address"},{"name":"status","type":"uint8","internalType":"enum SchoolManagementSystem.StaffStatus"},{"name":"exists","type":"bool","internalType":"bool"}]}],"stateMutability":"view"},{"type":"function","name":"getAllStudents","inputs":[],"outputs":[{"name":"","type":"tuple[]","internalType":"struct SchoolManagementSystem.Student[]","components":[{"name":"name","type":"string","internalType":"string"},{"name":"level","type":"uint16","internalType":"uint16"},{"name":"feesPaid","type":"uint256","internalType":"uint256"},{"name":"paymentStatus","type":"bool","internalType":"bool"},{"name":"timeStamp","type":"uint256","internalType":"uint256"},{"name":"studentAddress","type":"address","internalType":"address"},{"name":"exists","type":"bool","internalType":"bool"}]}],"stateMutability":"view"},{"type":"function","name":"getStaffInfo","inputs":[{"name":"_staffAddress","type":"address","internalType":"address"}],"outputs":[{"name":"name","type":"string","internalType":"string"},{"name":"role","type":"string","internalType":"string"},{"name":"salary","type":"uint256","internalType":"uint256"},{"name":"statusString","type":"string","internalType":"string"}],"stateMutability":"view"},{"type":"function","name":"getStaffStatus","inputs":[{"name":"_status","type":"uint8","internalType":"enum SchoolManagementSystem.StaffStatus"}],"outputs":[{"name":"","type":"string","internalType":"string"}],"stateMutability":"pure"},{"type":"function","name":"owner","inputs":[],"outputs":[{"name":"","type":"address","internalType":"address"}],"stateMutability":"view"},{"type":"function","name":"payStaff","inputs":[{"name":"_staffAddress","type":"address","internalType":"address"}],"outputs":[],"stateMutability":"nonpayable"},{"type":"function","name":"registerStaff","inputs":[{"name":"_staffAddress","type":"address","internalType":"address"},{"name":"_name","type":"string","internalType":"string"},{"name":"_role","type":"string","internalType":"string"},{"name":"_salary","type":"uint256","internalType":"uint256"}],"outputs":[],"stateMutability":"nonpayable"},{"type":"function","name":"registerStudent","inputs":[{"name":"_name","type":"string","internalType":"string"},{"name":"_level","type":"uint16","internalType":"uint16"}],"outputs":[],"stateMutability":"nonpayable"},{"type":"function","name":"removeStudent","inputs":[{"name":"_studentAddress","type":"address","internalType":"address"}],"outputs":[],"stateMutability":"nonpayable"},{"type":"function","name":"staffAddresses","inputs":[{"name":"","type":"uint256","internalType":"uint256"}],"outputs":[{"name":"","type":"address","internalType":"address"}],"stateMutability":"view"},{"type":"function","name":"staffs","inputs":[{"name":"","type":"address","internalType":"address"}],"outputs":[{"name":"name","type":"string","internalType":"string"},{"name":"role","type":"string","internalType":"string"},{"name":"salary","type":"uint256","internalType":"uint256"},{"name":"paymentStatusForTheMonth","type":"bool","internalType":"bool"},{"name":"totalPaymentReceived","type":"uint256","internalType":"uint256"},{"name":"hiredAt","type":"uint256","internalType":"uint256"},{"name":"lastPaymentDate","type":"uint256","internalType":"uint256"},{"name":"staffAddress","type":"address","internalType":"address"},{"name":"status","type":"uint8","internalType":"enum SchoolManagementSystem.StaffStatus"},{"name":"exists","type":"bool","internalType":"bool"}],"stateMutability":"view"},{"type":"function","name":"studentAddresses","inputs":[{"name":"","type":"uint256","internalType":"uint256"}],"outputs":[{"name":"","type":"address","internalType":"address"}],"stateMutability":"view"},{"type":"function","name":"students","inputs":[{"name":"","type":"address","internalType":"address"}],"outputs":[{"name":"name","type":"string","internalType":"string"},{"name":"level","type":"uint16","internalType":"uint16"},{"name":"feesPaid","type":"uint256","internalType":"uint256"},{"name":"paymentStatus","type":"bool","internalType":"bool"},{"name":"timeStamp","type":"uint256","internalType":"uint256"},{"name":"studentAddress","type":"address","internalType":"address"},{"name":"exists","type":"bool","internalType":"bool"}],"stateMutability":"view"},{"type":"function","name":"token","inputs":[],"outputs":[{"name":"","type":"address","internalType":"contract SchoolToken"}],"stateMutability":"view"},{"type":"function","name":"toogleSuspension","inputs":[{"name":"_staffAddress","type":"address","internalType":"address"}],"outputs":[],"stateMutability":"nonpayable"},{"type":"event","name":"StaffPaid","inputs":[{"name":"staff","type":"address","indexed":true,"internalType":"address"},{"name":"amount","type":"uint256","indexed":false,"internalType":"uint256"},{"name":"timestamp","type":"uint256","indexed":false,"internalType":"uint256"}],"anonymous":false},{"type":"event","name":"StaffRegistered","inputs":[{"name":"staff","type":"address","indexed":true,"internalType":"address"},{"name":"name","type":"string","indexed":false,"internalType":"string"},{"name":"role","type":"string","indexed":false,"internalType":"string"},{"name":"salary","type":"uint256","indexed":false,"internalType":"uint256"}],"anonymous":false},{"type":"event","name":"StudentRegistered","inputs":[{"name":"student","type":"address","indexed":true,"internalType":"address"},{"name":"name","type":"string","indexed":false,"internalType":"string"},{"name":"level","type":"uint16","indexed":false,"internalType":"uint16"},{"name":"amountPaid","type":"uint256","indexed":false,"internalType":"uint256"},{"name":"timestamp","type":"uint256","indexed":false,"internalType":"uint256"}],"anonymous":false}],"bytecode":{"object":"0x608060405234801561000f575f5ffd5b50604051613cc1380380613cc1833981810160405281019061003191906101a9565b805f5f6101000a81548173ffffffffffffffffffffffffffffffffffffffff021916908373ffffffffffffffffffffffffffffffffffffffff1602179055503360015f6101000a81548173ffffffffffffffffffffffffffffffffffffffff021916908373ffffffffffffffffffffffffffffffffffffffff160217905550686c6b935b8bbd40000060065f606461ffff1681526020019081526020015f208190555069010f0cf064dd5920000060065f60c861ffff1681526020019081526020015f20819055506901b1ae4d6e2ef500000060065f61012c61ffff1681526020019081526020015f208190555069021e19e0c9bab240000060065f61019061ffff1681526020019081526020015f2081905550506101d4565b5f5ffd5b5f73ffffffffffffffffffffffffffffffffffffffff82169050919050565b5f6101788261014f565b9050919050565b6101888161016e565b8114610192575f5ffd5b50565b5f815190506101a38161017f565b92915050565b5f602082840312156101be576101bd61014b565b5b5f6101cb84828501610195565b91505092915050565b613ae0806101e15f395ff3fe608060405234801561000f575f5ffd5b50600436106100f2575f3560e01c80638da5cb5b11610095578063baae62ec11610064578063baae62ec146102a1578063e9e30927146102d4578063ef32a4dc146102f2578063fc0c546a1461030e576100f2565b80638da5cb5b146101e4578063a6c807a914610202578063b5ab682d14610238578063b7ee0adc14610268576100f2565b806344c50043116100d157806344c500431461014c57806361fe4a9f1461017c57806378c4798c146101985780638c9bffb7146101b4576100f2565b8062684e8a146100f6578063032e08681461011257806336134e9a14610130575b5f5ffd5b610110600480360381019061010b9190612463565b61032c565b005b61011a61046e565b604051610127919061274b565b60405180910390f35b61014a600480360381019061014591906128c1565b6107a1565b005b61016660048036038101906101619190612980565b610c21565b60405161017391906129f3565b60405180910390f35b61019660048036038101906101919190612463565b610d9a565b005b6101b260048036038101906101ad9190612463565b611311565b005b6101ce60048036038101906101c99190612a13565b6115d7565b6040516101db9190612a4d565b60405180910390f35b6101ec611612565b6040516101f99190612a4d565b60405180910390f35b61021c60048036038101906102179190612463565b611637565b60405161022f9796959493929190612aa0565b60405180910390f35b610252600480360381019061024d9190612a13565b611740565b60405161025f9190612a4d565b60405180910390f35b610282600480360381019061027d9190612463565b61177b565b6040516102989a99989796959493929190612b23565b60405180910390f35b6102bb60048036038101906102b69190612463565b61191c565b6040516102cb9493929190612bcb565b60405180910390f35b6102dc611aac565b6040516102e99190612d86565b60405180910390f35b61030c60048036038101906103079190612dd0565b611d1e565b005b6103166122b1565b6040516103239190612e85565b60405180910390f35b60045f8273ffffffffffffffffffffffffffffffffffffffff1673ffffffffffffffffffffffffffffffffffffffff1681526020019081526020015f2060070160159054906101000a900460ff166103b9576040517f08c379a00000000000000000000000000000000000000000000000000000000081526004016103b090612ee8565b60405180910390fd5b5f60045f8373ffffffffffffffffffffffffffffffffffffffff1673ffffffffffffffffffffffffffffffffffffffff1681526020019081526020015f20905060028081111561040c5761040b612568565b5b8160070160149054906101000a900460ff1660028111156104305761042f612568565b5b1461043c57600261043f565b60015b8160070160146101000a81548160ff0219169083600281111561046557610464612568565b5b02179055505050565b60605f60058054905067ffffffffffffffff8111156104905761048f612773565b5b6040519080825280602002602001820160405280156104c957816020015b6104b66122d5565b8152602001906001900390816104ae5790505b5090505f5f90505b6005805490508110156107995760045f600583815481106104f5576104f4612f06565b5b905f5260205f20015f9054906101000a900473ffffffffffffffffffffffffffffffffffffffff1673ffffffffffffffffffffffffffffffffffffffff1673ffffffffffffffffffffffffffffffffffffffff1681526020019081526020015f20604051806101400160405290815f8201805461057190612f60565b80601f016020809104026020016040519081016040528092919081815260200182805461059d90612f60565b80156105e85780601f106105bf576101008083540402835291602001916105e8565b820191905f5260205f20905b8154815290600101906020018083116105cb57829003601f168201915b5050505050815260200160018201805461060190612f60565b80601f016020809104026020016040519081016040528092919081815260200182805461062d90612f60565b80156106785780601f1061064f57610100808354040283529160200191610678565b820191905f5260205f20905b81548152906001019060200180831161065b57829003601f168201915b5050505050815260200160028201548152602001600382015f9054906101000a900460ff16151515158152602001600482015481526020016005820154815260200160068201548152602001600782015f9054906101000a900473ffffffffffffffffffffffffffffffffffffffff1673ffffffffffffffffffffffffffffffffffffffff1673ffffffffffffffffffffffffffffffffffffffff1681526020016007820160149054906101000a900460ff16600281111561073d5761073c612568565b5b600281111561074f5761074e612568565b5b81526020016007820160159054906101000a900460ff16151515158152505082828151811061078157610780612f06565b5b602002602001018190525080806001019150506104d1565b508091505090565b60015f9054906101000a900473ffffffffffffffffffffffffffffffffffffffff1673ffffffffffffffffffffffffffffffffffffffff163373ffffffffffffffffffffffffffffffffffffffff1614610830576040517f08c379a000000000000000000000000000000000000000000000000000000000815260040161082790612fda565b60405180910390fd5b5f73ffffffffffffffffffffffffffffffffffffffff168473ffffffffffffffffffffffffffffffffffffffff160361089e576040517f08c379a000000000000000000000000000000000000000000000000000000000815260040161089590613042565b60405180910390fd5b5f73ffffffffffffffffffffffffffffffffffffffff1660045f8673ffffffffffffffffffffffffffffffffffffffff1673ffffffffffffffffffffffffffffffffffffffff1681526020019081526020015f206007015f9054906101000a900473ffffffffffffffffffffffffffffffffffffffff1673ffffffffffffffffffffffffffffffffffffffff161461096b576040517f08c379a0000000000000000000000000000000000000000000000000000000008152600401610962906130aa565b60405180910390fd5b5f81116109ad576040517f08c379a00000000000000000000000000000000000000000000000000000000081526004016109a490613112565b60405180910390fd5b6040518061014001604052808481526020018381526020018281526020015f151581526020015f81526020014281526020015f81526020018573ffffffffffffffffffffffffffffffffffffffff1681526020015f6002811115610a1457610a13612568565b5b81526020016001151581525060045f8673ffffffffffffffffffffffffffffffffffffffff1673ffffffffffffffffffffffffffffffffffffffff1681526020019081526020015f205f820151815f019081610a7091906132d8565b506020820151816001019081610a8691906132d8565b50604082015181600201556060820151816003015f6101000a81548160ff0219169083151502179055506080820151816004015560a0820151816005015560c0820151816006015560e0820151816007015f6101000a81548173ffffffffffffffffffffffffffffffffffffffff021916908373ffffffffffffffffffffffffffffffffffffffff1602179055506101008201518160070160146101000a81548160ff02191690836002811115610b4057610b3f612568565b5b02179055506101208201518160070160156101000a81548160ff021916908315150217905550905050600584908060018154018082558091505060019003905f5260205f20015f9091909190916101000a81548173ffffffffffffffffffffffffffffffffffffffff021916908373ffffffffffffffffffffffffffffffffffffffff1602179055508373ffffffffffffffffffffffffffffffffffffffff167f0570677dd5add6623f3194d4b7c4793a5584045d008b20a35c400e733a7cacf6848484604051610c13939291906133a7565b60405180910390a250505050565b60605f6002811115610c3657610c35612568565b5b826002811115610c4957610c48612568565b5b03610c8b576040518060400160405280601281526020017f5374616666206f6e2070726f626174696f6e00000000000000000000000000008152509050610d95565b600280811115610c9e57610c9d612568565b5b826002811115610cb157610cb0612568565b5b03610cf3576040518060400160405280600f81526020017f53746166662073757370656e64656400000000000000000000000000000000008152509050610d95565b60016002811115610d0757610d06612568565b5b826002811115610d1a57610d19612568565b5b03610d5c576040518060400160405280600c81526020017f53746166662061637469766500000000000000000000000000000000000000008152509050610d95565b6040518060400160405280600d81526020017f556e6b6f776e207374617475730000000000000000000000000000000000000081525090505b919050565b60015f9054906101000a900473ffffffffffffffffffffffffffffffffffffffff1673ffffffffffffffffffffffffffffffffffffffff163373ffffffffffffffffffffffffffffffffffffffff1614610e29576040517f08c379a0000000000000000000000000000000000000000000000000000000008152600401610e2090612fda565b60405180910390fd5b5f73ffffffffffffffffffffffffffffffffffffffff1660045f8373ffffffffffffffffffffffffffffffffffffffff1673ffffffffffffffffffffffffffffffffffffffff1681526020019081526020015f206007015f9054906101000a900473ffffffffffffffffffffffffffffffffffffffff1673ffffffffffffffffffffffffffffffffffffffff1603610ef6576040517f08c379a0000000000000000000000000000000000000000000000000000000008152600401610eed90613434565b60405180910390fd5b5f60045f8373ffffffffffffffffffffffffffffffffffffffff1673ffffffffffffffffffffffffffffffffffffffff1681526020019081526020015f20905060016002811115610f4a57610f49612568565b5b8160070160149054906101000a900460ff166002811115610f6e57610f6d612568565b5b1480610fae57505f6002811115610f8857610f87612568565b5b8160070160149054906101000a900460ff166002811115610fac57610fab612568565b5b145b610fed576040517f08c379a0000000000000000000000000000000000000000000000000000000008152600401610fe49061349c565b60405180910390fd5b6224ea00816006015461100091906134e7565b421015611042576040517f08c379a000000000000000000000000000000000000000000000000000000000815260040161103990613564565b60405180910390fd5b42816006018190555080600201545f5f9054906101000a900473ffffffffffffffffffffffffffffffffffffffff1673ffffffffffffffffffffffffffffffffffffffff166370a08231306040518263ffffffff1660e01b81526004016110a99190612a4d565b602060405180830381865afa1580156110c4573d5f5f3e3d5ffd5b505050506040513d601f19601f820116820180604052508101906110e89190613596565b1015611129576040517f08c379a00000000000000000000000000000000000000000000000000000000081526004016111209061360b565b60405180910390fd5b5f5f5f9054906101000a900473ffffffffffffffffffffffffffffffffffffffff1673ffffffffffffffffffffffffffffffffffffffff1663a9059cbb8484600201546040518363ffffffff1660e01b8152600401611189929190613629565b6020604051808303815f875af11580156111a5573d5f5f3e3d5ffd5b505050506040513d601f19601f820116820180604052508101906111c9919061367a565b90508061120b576040517f08c379a0000000000000000000000000000000000000000000000000000000008152600401611202906136ef565b60405180910390fd5b6001826003015f6101000a81548160ff0219169083151502179055504282600601819055508160020154826004015f82825461124791906134e7565b925050819055505f600281111561126157611260612568565b5b8260070160149054906101000a900460ff16600281111561128557611284612568565b5b036112b85760018260070160146101000a81548160ff021916908360028111156112b2576112b1612568565b5b02179055505b8273ffffffffffffffffffffffffffffffffffffffff167f1520ed29d9370c2127ad3d143e6d89a42413a1084093071b41dc9086f2de048c83600201544260405161130492919061370d565b60405180910390a2505050565b60025f8273ffffffffffffffffffffffffffffffffffffffff1673ffffffffffffffffffffffffffffffffffffffff1681526020019081526020015f2060050160149054906101000a900460ff1661139e576040517f08c379a00000000000000000000000000000000000000000000000000000000081526004016113959061377e565b60405180910390fd5b5f5f90505b6003805490508110156115d3578173ffffffffffffffffffffffffffffffffffffffff16600382815481106113db576113da612f06565b5b905f5260205f20015f9054906101000a900473ffffffffffffffffffffffffffffffffffffffff1673ffffffffffffffffffffffffffffffffffffffff16036115c65760036001600380549050611432919061379c565b8154811061144357611442612f06565b5b905f5260205f20015f9054906101000a900473ffffffffffffffffffffffffffffffffffffffff166003828154811061147f5761147e612f06565b5b905f5260205f20015f6101000a81548173ffffffffffffffffffffffffffffffffffffffff021916908373ffffffffffffffffffffffffffffffffffffffff16021790555060038054806114d6576114d56137cf565b5b600190038181905f5260205f20015f6101000a81549073ffffffffffffffffffffffffffffffffffffffff0219169055905560025f8373ffffffffffffffffffffffffffffffffffffffff1673ffffffffffffffffffffffffffffffffffffffff1681526020019081526020015f205f5f82015f611554919061234c565b600182015f6101000a81549061ffff0219169055600282015f9055600382015f6101000a81549060ff0219169055600482015f9055600582015f6101000a81549073ffffffffffffffffffffffffffffffffffffffff02191690556005820160146101000a81549060ff021916905550505b80806001019150506113a3565b5050565b600581815481106115e6575f80fd5b905f5260205f20015f915054906101000a900473ffffffffffffffffffffffffffffffffffffffff1681565b60015f9054906101000a900473ffffffffffffffffffffffffffffffffffffffff1681565b6002602052805f5260405f205f91509050805f01805461165690612f60565b80601f016020809104026020016040519081016040528092919081815260200182805461168290612f60565b80156116cd5780601f106116a4576101008083540402835291602001916116cd565b820191905f5260205f20905b8154815290600101906020018083116116b057829003601f168201915b505050505090806001015f9054906101000a900461ffff1690806002015490806003015f9054906101000a900460ff1690806004015490806005015f9054906101000a900473ffffffffffffffffffffffffffffffffffffffff16908060050160149054906101000a900460ff16905087565b6003818154811061174f575f80fd5b905f5260205f20015f915054906101000a900473ffffffffffffffffffffffffffffffffffffffff1681565b6004602052805f5260405f205f91509050805f01805461179a90612f60565b80601f01602080910402602001604051908101604052809291908181526020018280546117c690612f60565b80156118115780601f106117e857610100808354040283529160200191611811565b820191905f5260205f20905b8154815290600101906020018083116117f457829003601f168201915b50505050509080600101805461182690612f60565b80601f016020809104026020016040519081016040528092919081815260200182805461185290612f60565b801561189d5780601f106118745761010080835404028352916020019161189d565b820191905f5260205f20905b81548152906001019060200180831161188057829003601f168201915b505050505090806002015490806003015f9054906101000a900460ff1690806004015490806005015490806006015490806007015f9054906101000a900473ffffffffffffffffffffffffffffffffffffffff16908060070160149054906101000a900460ff16908060070160159054906101000a900460ff1690508a565b6060805f60605f60045f8773ffffffffffffffffffffffffffffffffffffffff1673ffffffffffffffffffffffffffffffffffffffff1681526020019081526020015f209050805f018160010182600201546119888460070160149054906101000a900460ff16610c21565b83805461199490612f60565b80601f01602080910402602001604051908101604052809291908181526020018280546119c090612f60565b8015611a0b5780601f106119e257610100808354040283529160200191611a0b565b820191905f5260205f20905b8154815290600101906020018083116119ee57829003601f168201915b50505050509350828054611a1e90612f60565b80601f0160208091040260200160405190810160405280929190818152602001828054611a4a90612f60565b8015611a955780601f10611a6c57610100808354040283529160200191611a95565b820191905f5260205f20905b815481529060010190602001808311611a7857829003601f168201915b505050505092509450945094509450509193509193565b60605f60038054905067ffffffffffffffff811115611ace57611acd612773565b5b604051908082528060200260200182016040528015611b0757816020015b611af4612386565b815260200190600190039081611aec5790505b5090505f5f90505b600380549050811015611d165760025f60038381548110611b3357611b32612f06565b5b905f5260205f20015f9054906101000a900473ffffffffffffffffffffffffffffffffffffffff1673ffffffffffffffffffffffffffffffffffffffff1673ffffffffffffffffffffffffffffffffffffffff1681526020019081526020015f206040518060e00160405290815f82018054611bae90612f60565b80601f0160208091040260200160405190810160405280929190818152602001828054611bda90612f60565b8015611c255780601f10611bfc57610100808354040283529160200191611c25565b820191905f5260205f20905b815481529060010190602001808311611c0857829003601f168201915b50505050508152602001600182015f9054906101000a900461ffff1661ffff1661ffff16815260200160028201548152602001600382015f9054906101000a900460ff1615151515815260200160048201548152602001600582015f9054906101000a900473ffffffffffffffffffffffffffffffffffffffff1673ffffffffffffffffffffffffffffffffffffffff1673ffffffffffffffffffffffffffffffffffffffff1681526020016005820160149054906101000a900460ff161515151581525050828281518110611cfe57611cfd612f06565b5b60200260200101819052508080600101915050611b0f565b508091505090565b5f60025f3373ffffffffffffffffffffffffffffffffffffffff1673ffffffffffffffffffffffffffffffffffffffff1681526020019081526020015f206004015414611da0576040517f08c379a0000000000000000000000000000000000000000000000000000000008152600401611d9790613846565b60405180910390fd5b5f60065f8361ffff1661ffff1681526020019081526020015f205490505f8111611dff576040517f08c379a0000000000000000000000000000000000000000000000000000000008152600401611df6906138ae565b60405180910390fd5b805f5f9054906101000a900473ffffffffffffffffffffffffffffffffffffffff1673ffffffffffffffffffffffffffffffffffffffff166370a08231336040518263ffffffff1660e01b8152600401611e599190612a4d565b602060405180830381865afa158015611e74573d5f5f3e3d5ffd5b505050506040513d601f19601f82011682018060405250810190611e989190613596565b1015611ed9576040517f08c379a0000000000000000000000000000000000000000000000000000000008152600401611ed090613916565b60405180910390fd5b805f5f9054906101000a900473ffffffffffffffffffffffffffffffffffffffff1673ffffffffffffffffffffffffffffffffffffffff1663dd62ed3e33306040518363ffffffff1660e01b8152600401611f35929190613934565b602060405180830381865afa158015611f50573d5f5f3e3d5ffd5b505050506040513d601f19601f82011682018060405250810190611f749190613596565b1015611fb5576040517f08c379a0000000000000000000000000000000000000000000000000000000008152600401611fac906139a5565b60405180910390fd5b5f5f5f9054906101000a900473ffffffffffffffffffffffffffffffffffffffff1673ffffffffffffffffffffffffffffffffffffffff166323b872dd3330856040518463ffffffff1660e01b8152600401612013939291906139c3565b6020604051808303815f875af115801561202f573d5f5f3e3d5ffd5b505050506040513d601f19601f82011682018060405250810190612053919061367a565b905080612095576040517f08c379a000000000000000000000000000000000000000000000000000000000815260040161208c90613a42565b60405180910390fd5b6040518060e001604052808581526020018461ffff1681526020018381526020016001151581526020014281526020013373ffffffffffffffffffffffffffffffffffffffff1681526020016001151581525060025f3373ffffffffffffffffffffffffffffffffffffffff1673ffffffffffffffffffffffffffffffffffffffff1681526020019081526020015f205f820151815f01908161213891906132d8565b506020820151816001015f6101000a81548161ffff021916908361ffff160217905550604082015181600201556060820151816003015f6101000a81548160ff0219169083151502179055506080820151816004015560a0820151816005015f6101000a81548173ffffffffffffffffffffffffffffffffffffffff021916908373ffffffffffffffffffffffffffffffffffffffff16021790555060c08201518160050160146101000a81548160ff021916908315150217905550905050600333908060018154018082558091505060019003905f5260205f20015f9091909190916101000a81548173ffffffffffffffffffffffffffffffffffffffff021916908373ffffffffffffffffffffffffffffffffffffffff1602179055503373ffffffffffffffffffffffffffffffffffffffff167ff3e290c08d05586cf0389e9b59a6c47e550a3804d145a2ca444422c6dda1089d858585426040516122a39493929190613a60565b60405180910390a250505050565b5f5f9054906101000a900473ffffffffffffffffffffffffffffffffffffffff1681565b60405180610140016040528060608152602001606081526020015f81526020015f151581526020015f81526020015f81526020015f81526020015f73ffffffffffffffffffffffffffffffffffffffff1681526020015f600281111561233e5761233d612568565b5b81526020015f151581525090565b50805461235890612f60565b5f825580601f106123695750612383565b601f0160209004905f5260205f209061238291906123db565b5b50565b6040518060e00160405280606081526020015f61ffff1681526020015f81526020015f151581526020015f81526020015f73ffffffffffffffffffffffffffffffffffffffff1681526020015f151581525090565b5f5b808211156123f3578281015f90556001016123dd565b505090565b5f604051905090565b5f5ffd5b5f5ffd5b5f73ffffffffffffffffffffffffffffffffffffffff82169050919050565b5f61243282612409565b9050919050565b61244281612428565b811461244c575f5ffd5b50565b5f8135905061245d81612439565b92915050565b5f6020828403121561247857612477612401565b5b5f6124858482850161244f565b91505092915050565b5f81519050919050565b5f82825260208201905092915050565b5f819050602082019050919050565b5f81519050919050565b5f82825260208201905092915050565b8281835e5f83830152505050565b5f601f19601f8301169050919050565b5f6124f9826124b7565b61250381856124c1565b93506125138185602086016124d1565b61251c816124df565b840191505092915050565b5f819050919050565b61253981612527565b82525050565b5f8115159050919050565b6125538161253f565b82525050565b61256281612428565b82525050565b7f4e487b71000000000000000000000000000000000000000000000000000000005f52602160045260245ffd5b600381106125a6576125a5612568565b5b50565b5f8190506125b682612595565b919050565b5f6125c5826125a9565b9050919050565b6125d5816125bb565b82525050565b5f61014083015f8301518482035f8601526125f682826124ef565b9150506020830151848203602086015261261082826124ef565b91505060408301516126256040860182612530565b506060830151612638606086018261254a565b50608083015161264b6080860182612530565b5060a083015161265e60a0860182612530565b5060c083015161267160c0860182612530565b5060e083015161268460e0860182612559565b506101008301516126996101008601826125cc565b506101208301516126ae61012086018261254a565b508091505092915050565b5f6126c483836125db565b905092915050565b5f602082019050919050565b5f6126e28261248e565b6126ec8185612498565b9350836020820285016126fe856124a8565b805f5b85811015612739578484038952815161271a85826126b9565b9450612725836126cc565b925060208a01995050600181019050612701565b50829750879550505050505092915050565b5f6020820190508181035f83015261276381846126d8565b905092915050565b5f5ffd5b5f5ffd5b7f4e487b71000000000000000000000000000000000000000000000000000000005f52604160045260245ffd5b6127a9826124df565b810181811067ffffffffffffffff821117156127c8576127c7612773565b5b80604052505050565b5f6127da6123f8565b90506127e682826127a0565b919050565b5f67ffffffffffffffff82111561280557612804612773565b5b61280e826124df565b9050602081019050919050565b828183375f83830152505050565b5f61283b612836846127eb565b6127d1565b9050828152602081018484840111156128575761285661276f565b5b61286284828561281b565b509392505050565b5f82601f83011261287e5761287d61276b565b5b813561288e848260208601612829565b91505092915050565b6128a081612527565b81146128aa575f5ffd5b50565b5f813590506128bb81612897565b92915050565b5f5f5f5f608085870312156128d9576128d8612401565b5b5f6128e68782880161244f565b945050602085013567ffffffffffffffff81111561290757612906612405565b5b6129138782880161286a565b935050604085013567ffffffffffffffff81111561293457612933612405565b5b6129408782880161286a565b9250506060612951878288016128ad565b91505092959194509250565b60038110612969575f5ffd5b50565b5f8135905061297a8161295d565b92915050565b5f6020828403121561299557612994612401565b5b5f6129a28482850161296c565b91505092915050565b5f82825260208201905092915050565b5f6129c5826124b7565b6129cf81856129ab565b93506129df8185602086016124d1565b6129e8816124df565b840191505092915050565b5f6020820190508181035f830152612a0b81846129bb565b905092915050565b5f60208284031215612a2857612a27612401565b5b5f612a35848285016128ad565b91505092915050565b612a4781612428565b82525050565b5f602082019050612a605f830184612a3e565b92915050565b5f61ffff82169050919050565b612a7c81612a66565b82525050565b612a8b81612527565b82525050565b612a9a8161253f565b82525050565b5f60e0820190508181035f830152612ab8818a6129bb565b9050612ac76020830189612a73565b612ad46040830188612a82565b612ae16060830187612a91565b612aee6080830186612a82565b612afb60a0830185612a3e565b612b0860c0830184612a91565b98975050505050505050565b612b1d816125bb565b82525050565b5f610140820190508181035f830152612b3c818d6129bb565b90508181036020830152612b50818c6129bb565b9050612b5f604083018b612a82565b612b6c606083018a612a91565b612b796080830189612a82565b612b8660a0830188612a82565b612b9360c0830187612a82565b612ba060e0830186612a3e565b612bae610100830185612b14565b612bbc610120830184612a91565b9b9a5050505050505050505050565b5f6080820190508181035f830152612be381876129bb565b90508181036020830152612bf781866129bb565b9050612c066040830185612a82565b8181036060830152612c1881846129bb565b905095945050505050565b5f81519050919050565b5f82825260208201905092915050565b5f819050602082019050919050565b612c5581612a66565b82525050565b5f60e083015f8301518482035f860152612c7582826124ef565b9150506020830151612c8a6020860182612c4c565b506040830151612c9d6040860182612530565b506060830151612cb0606086018261254a565b506080830151612cc36080860182612530565b5060a0830151612cd660a0860182612559565b5060c0830151612ce960c086018261254a565b508091505092915050565b5f612cff8383612c5b565b905092915050565b5f602082019050919050565b5f612d1d82612c23565b612d278185612c2d565b935083602082028501612d3985612c3d565b805f5b85811015612d745784840389528151612d558582612cf4565b9450612d6083612d07565b925060208a01995050600181019050612d3c565b50829750879550505050505092915050565b5f6020820190508181035f830152612d9e8184612d13565b905092915050565b612daf81612a66565b8114612db9575f5ffd5b50565b5f81359050612dca81612da6565b92915050565b5f5f60408385031215612de657612de5612401565b5b5f83013567ffffffffffffffff811115612e0357612e02612405565b5b612e0f8582860161286a565b9250506020612e2085828601612dbc565b9150509250929050565b5f819050919050565b5f612e4d612e48612e4384612409565b612e2a565b612409565b9050919050565b5f612e5e82612e33565b9050919050565b5f612e6f82612e54565b9050919050565b612e7f81612e65565b82525050565b5f602082019050612e985f830184612e76565b92915050565b7f537461666620646f6573206e6f742065786973740000000000000000000000005f82015250565b5f612ed26014836129ab565b9150612edd82612e9e565b602082019050919050565b5f6020820190508181035f830152612eff81612ec6565b9050919050565b7f4e487b71000000000000000000000000000000000000000000000000000000005f52603260045260245ffd5b7f4e487b71000000000000000000000000000000000000000000000000000000005f52602260045260245ffd5b5f6002820490506001821680612f7757607f821691505b602082108103612f8a57612f89612f33565b5b50919050565b7f4e6f7420617574686f72697a65640000000000000000000000000000000000005f82015250565b5f612fc4600e836129ab565b9150612fcf82612f90565b602082019050919050565b5f6020820190508181035f830152612ff181612fb8565b9050919050565b7f496e76616c6964206164647265737300000000000000000000000000000000005f82015250565b5f61302c600f836129ab565b915061303782612ff8565b602082019050919050565b5f6020820190508181035f83015261305981613020565b9050919050565b7f537461666620616c7265616479207265676973746572656400000000000000005f82015250565b5f6130946018836129ab565b915061309f82613060565b602082019050919050565b5f6020820190508181035f8301526130c181613088565b9050919050565b7f496e76616c69642073616c6172790000000000000000000000000000000000005f82015250565b5f6130fc600e836129ab565b9150613107826130c8565b602082019050919050565b5f6020820190508181035f830152613129816130f0565b9050919050565b5f819050815f5260205f209050919050565b5f6020601f8301049050919050565b5f82821b905092915050565b5f6008830261318c7fffffffffffffffffffffffffffffffffffffffffffffffffffffffffffffffff82613151565b6131968683613151565b95508019841693508086168417925050509392505050565b5f6131c86131c36131be84612527565b612e2a565b612527565b9050919050565b5f819050919050565b6131e1836131ae565b6131f56131ed826131cf565b84845461315d565b825550505050565b5f5f905090565b61320c6131fd565b6132178184846131d8565b505050565b5f5b8281101561323d576132325f828401613204565b60018101905061321e565b505050565b601f821115613290578282111561328f5761325c81613130565b61326583613142565b61326e85613142565b602086101561327b575f90505b80830161328a8284038261321c565b505050505b5b505050565b5f82821c905092915050565b5f6132b05f1984600802613295565b1980831691505092915050565b5f6132c883836132a1565b9150826002028217905092915050565b6132e1826124b7565b67ffffffffffffffff8111156132fa576132f9612773565b5b6133048254612f60565b61330f828285613242565b5f60209050601f831160018114613340575f841561332e578287015190505b61333885826132bd565b86555061339f565b601f19841661334e86613130565b5f5b8281101561337557848901518255600182019150602085019450602081019050613350565b86831015613392578489015161338e601f8916826132a1565b8355505b6001600288020188555050505b505050505050565b5f6060820190508181035f8301526133bf81866129bb565b905081810360208301526133d381856129bb565b90506133e26040830184612a82565b949350505050565b7f5374616666206e6f7420666f756e6400000000000000000000000000000000005f82015250565b5f61341e600f836129ab565b9150613429826133ea565b602082019050919050565b5f6020820190508181035f83015261344b81613412565b9050919050565b7f4e6f7420656c696769626c6500000000000000000000000000000000000000005f82015250565b5f613486600c836129ab565b915061349182613452565b602082019050919050565b5f6020820190508181035f8301526134b38161347a565b9050919050565b7f4e487b71000000000000000000000000000000000000000000000000000000005f52601160045260245ffd5b5f6134f182612527565b91506134fc83612527565b9250828201905080821115613514576135136134ba565b5b92915050565b7f5061796d656e7420696e74657276616c206e6f742072656163686564000000005f82015250565b5f61354e601c836129ab565b91506135598261351a565b602082019050919050565b5f6020820190508181035f83015261357b81613542565b9050919050565b5f8151905061359081612897565b92915050565b5f602082840312156135ab576135aa612401565b5b5f6135b884828501613582565b91505092915050565b7f496e73756666696369656e7420636f6e74726163742062616c616e63650000005f82015250565b5f6135f5601d836129ab565b9150613600826135c1565b602082019050919050565b5f6020820190508181035f830152613622816135e9565b9050919050565b5f60408201905061363c5f830185612a3e565b6136496020830184612a82565b9392505050565b6136598161253f565b8114613663575f5ffd5b50565b5f8151905061367481613650565b92915050565b5f6020828403121561368f5761368e612401565b5b5f61369c84828501613666565b91505092915050565b7f53616c617279207061796d656e74206661696c656400000000000000000000005f82015250565b5f6136d96015836129ab565b91506136e4826136a5565b602082019050919050565b5f6020820190508181035f830152613706816136cd565b9050919050565b5f6040820190506137205f830185612a82565b61372d6020830184612a82565b9392505050565b7f53747564656e7420646f6573206e6f74206578697374000000000000000000005f82015250565b5f6137686016836129ab565b915061377382613734565b602082019050919050565b5f6020820190508181035f8301526137958161375c565b9050919050565b5f6137a682612527565b91506137b183612527565b92508282039050818111156137c9576137c86134ba565b5b92915050565b7f4e487b71000000000000000000000000000000000000000000000000000000005f52603160045260245ffd5b7f416c7265616479207265676973746572656400000000000000000000000000005f82015250565b5f6138306012836129ab565b915061383b826137fc565b602082019050919050565b5f6020820190508181035f83015261385d81613824565b9050919050565b7f496e76616c6964206c6576656c000000000000000000000000000000000000005f82015250565b5f613898600d836129ab565b91506138a382613864565b602082019050919050565b5f6020820190508181035f8301526138c58161388c565b9050919050565b7f496e73756666696369656e742066756e647300000000000000000000000000005f82015250565b5f6139006012836129ab565b915061390b826138cc565b602082019050919050565b5f6020820190508181035f83015261392d816138f4565b9050919050565b5f6040820190506139475f830185612a3e565b6139546020830184612a3e565b9392505050565b7f496e73756666696369656e7420616c6c6f77616e6365000000000000000000005f82015250565b5f61398f6016836129ab565b915061399a8261395b565b602082019050919050565b5f6020820190508181035f8301526139bc81613983565b9050919050565b5f6060820190506139d65f830186612a3e565b6139e36020830185612a3e565b6139f06040830184612a82565b949350505050565b7f466565207061796d656e74206661696c656400000000000000000000000000005f82015250565b5f613a2c6012836129ab565b9150613a37826139f8565b602082019050919050565b5f6020820190508181035f830152613a5981613a20565b9050919050565b5f6080820190508181035f830152613a7881876129bb565b9050613a876020830186612a73565b613a946040830185612a82565b613aa16060830184612a82565b9594505050505056fea2646970667358221220adc0afb6380a9357139007f0a99e56017417715852e3578c4af8e2b8682c302164736f6c63430008210033","linkReferences":{}},"methodIdentifiers":{"getAllStaff()":"032e0868","getAllStudents()":"e9e30927","getStaffInfo(address)":"baae62ec","getStaffStatus(uint8)":"44c50043","owner()":"8da5cb5b","payStaff(address)":"61fe4a9f","registerStaff(address,string,string,uint256)":"36134e9a","registerStudent(string,uint16)":"ef32a4dc","removeStudent(address)":"78c4798c","staffAddresses(uint256)":"8c9bffb7","staffs(address)":"b7ee0adc","studentAddresses(uint256)":"b5ab682d","students(address)":"a6c807a9","token()":"fc0c546a","toogleSuspension(address)":"00684e8a"},"id":16}